{
  "_format": "hh-sol-artifact-1",
  "contractName": "ERC6551Registry",
  "sourceName": "contracts/ERC6551Registry.sol",
  "abi": [
    {
      "inputs": [
        {
          "internalType": "address",
          "name": "_implementation",
          "type": "address"
        }
      ],
      "stateMutability": "nonpayable",
      "type": "constructor"
    },
    {
      "inputs": [],
      "name": "CreateError",
      "type": "error"
    },
    {
      "anonymous": false,
      "inputs": [
        {
          "indexed": false,
          "internalType": "address",
          "name": "account",
          "type": "address"
        },
        {
          "indexed": true,
          "internalType": "address",
          "name": "tokenContract",
          "type": "address"
        },
        {
          "indexed": true,
          "internalType": "uint256",
          "name": "tokenId",
          "type": "uint256"
        }
      ],
      "name": "AccountCreated",
      "type": "event"
    },
    {
      "inputs": [
        {
          "internalType": "address",
          "name": "tokenCollection",
          "type": "address"
        },
        {
          "internalType": "uint256",
          "name": "tokenId",
          "type": "uint256"
        }
      ],
      "name": "account",
      "outputs": [
        {
          "internalType": "address",
          "name": "",
          "type": "address"
        }
      ],
      "stateMutability": "view",
      "type": "function"
    },
    {
      "inputs": [
        {
          "internalType": "address",
          "name": "tokenCollection",
          "type": "address"
        },
        {
          "internalType": "uint256",
          "name": "tokenId",
          "type": "uint256"
        }
      ],
      "name": "createAccount",
      "outputs": [
        {
          "internalType": "address",
          "name": "",
          "type": "address"
        }
      ],
      "stateMutability": "nonpayable",
      "type": "function"
    },
    {
      "inputs": [],
      "name": "implementation",
      "outputs": [
        {
          "internalType": "address",
          "name": "",
          "type": "address"
        }
      ],
      "stateMutability": "view",
      "type": "function"
    }
  ],
  "bytecode": "0x60a060405234801561001057600080fd5b506040516109b23803806109b2833981810160405281019061003291906100cf565b8073ffffffffffffffffffffffffffffffffffffffff1660808173ffffffffffffffffffffffffffffffffffffffff1681525050506100fc565b600080fd5b600073ffffffffffffffffffffffffffffffffffffffff82169050919050565b600061009c82610071565b9050919050565b6100ac81610091565b81146100b757600080fd5b50565b6000815190506100c9816100a3565b92915050565b6000602082840312156100e5576100e461006c565b5b60006100f3848285016100ba565b91505092915050565b60805161088e6101246000396000818160db0152818161014e01526101bf015261088e6000f3fe608060405234801561001057600080fd5b50600436106100415760003560e01c8063192df655146100465780635c60da1b146100765780635fbfb9cf14610094575b600080fd5b610060600480360381019061005b919061041d565b6100c4565b60405161006d919061046c565b60405180910390f35b61007e6100d9565b60405161008b919061046c565b60405180910390f35b6100ae60048036038101906100a9919061041d565b6100fd565b6040516100bb919061046c565b60405180910390f35b60006100d1468484610112565b905092915050565b7f000000000000000000000000000000000000000000000000000000000000000081565b600061010a468484610183565b905092915050565b60008084848460405160200161012a93929190610496565b604051602081830303815290604052905060008180519060200120905060006101747f00000000000000000000000000000000000000000000000000000000000000008484610243565b90508093505050509392505050565b60008084848460405160200161019b93929190610496565b604051602081830303815290604052905060008180519060200120905060006101e57f0000000000000000000000000000000000000000000000000000000000000000848461025a565b9050848673ffffffffffffffffffffffffffffffffffffffff167f33310a89c32d8cc00057ad6ef6274d2f8fe22389a992cf89983e09fc84f6cfff8360405161022e919061046c565b60405180910390a38093505050509392505050565b6000610251848484306102e3565b90509392505050565b600080610267858561030f565b9050828151602083016000f59150600073ffffffffffffffffffffffffffffffffffffffff168273ffffffffffffffffffffffffffffffffffffffff16036102db576040517f985da9b000000000000000000000000000000000000000000000000000000000815260040160405180910390fd5b509392505050565b6000806102f0868661030f565b905061030484828051906020012085610359565b915050949350505050565b606060018251602d61032191906104fc565b61032b91906104fc565b600b848460405160200161034294939291906107d7565b604051602081830303815290604052905092915050565b6000604051836040820152846020820152828152600b810160ff815360558120925050509392505050565b600080fd5b600073ffffffffffffffffffffffffffffffffffffffff82169050919050565b60006103b482610389565b9050919050565b6103c4816103a9565b81146103cf57600080fd5b50565b6000813590506103e1816103bb565b92915050565b6000819050919050565b6103fa816103e7565b811461040557600080fd5b50565b600081359050610417816103f1565b92915050565b6000806040838503121561043457610433610384565b5b6000610442858286016103d2565b925050602061045385828601610408565b9150509250929050565b610466816103a9565b82525050565b6000602082019050610481600083018461045d565b92915050565b610490816103e7565b82525050565b60006060820190506104ab6000830186610487565b6104b8602083018561045d565b6104c56040830184610487565b949350505050565b7f4e487b7100000000000000000000000000000000000000000000000000000000600052601160045260246000fd5b6000610507826103e7565b9150610512836103e7565b925082820190508082111561052a576105296104cd565b5b92915050565b600081905092915050565b7f3d61000000000000000000000000000000000000000000000000000000000000600082015250565b6000610571600283610530565b915061057c8261053b565b600282019050919050565b600061ffff82169050919050565b60008160f01b9050919050565b60006105ad82610595565b9050919050565b6105c56105c082610587565b6105a2565b82525050565b7f8060000000000000000000000000000000000000000000000000000000000000600082015250565b6000610601600283610530565b915061060c826105cb565b600282019050919050565b600060ff82169050919050565b60008160f81b9050919050565b600061063c82610624565b9050919050565b61065461064f82610617565b610631565b82525050565b7f3d3981f3363d3d373d3d3d363d73000000000000000000000000000000000000600082015250565b6000610690600e83610530565b915061069b8261065a565b600e82019050919050565b60008160601b9050919050565b60006106be826106a6565b9050919050565b60006106d0826106b3565b9050919050565b6106e86106e3826103a9565b6106c5565b82525050565b7f5af43d82803e903d91602b57fd5bf30000000000000000000000000000000000600082015250565b6000610724600f83610530565b915061072f826106ee565b600f82019050919050565b60008082015250565b6000610750600183610530565b915061075b8261073a565b600182019050919050565b600081519050919050565b600081905092915050565b60005b8381101561079a57808201518184015260208101905061077f565b60008484015250505050565b60006107b182610766565b6107bb8185610771565b93506107cb81856020860161077c565b80840191505092915050565b60006107e282610564565b91506107ee82876105b4565b6002820191506107fd826105f4565b91506108098286610643565b60018201915061081882610683565b915061082482856106d7565b60148201915061083382610717565b915061083e82610743565b915061084a82846107a6565b91508190509594505050505056fea26469706673582212207ab984a8714d55ce7f6f74261b797b7fce08d8c3a4c0d9b3c06f33b795d2da9b64736f6c63430008110033",
  "linkReferences": {},
  "deployedLinkReferences": {}
}