{
  "_format": "hh-sol-artifact-1",
  "contractName": "VerifiableCredential",
  "sourceName": "contracts/VerifiableCredential.sol",
  "abi": [
    {
      "inputs": [
        {
          "internalType": "bool",
          "name": "_allowFreelyAssignGuardian",
          "type": "bool"
        }
      ],
      "stateMutability": "nonpayable",
      "type": "constructor"
    },
    {
      "anonymous": false,
      "inputs": [
        {
          "indexed": true,
          "internalType": "address",
          "name": "owner",
          "type": "address"
        },
        {
          "indexed": true,
          "internalType": "address",
          "name": "approved",
          "type": "address"
        },
        {
          "indexed": true,
          "internalType": "uint256",
          "name": "tokenId",
          "type": "uint256"
        }
      ],
      "name": "Approval",
      "type": "event"
    },
    {
      "anonymous": false,
      "inputs": [
        {
          "indexed": true,
          "internalType": "address",
          "name": "owner",
          "type": "address"
        },
        {
          "indexed": true,
          "internalType": "address",
          "name": "operator",
          "type": "address"
        },
        {
          "indexed": false,
          "internalType": "bool",
          "name": "approved",
          "type": "bool"
        }
      ],
      "name": "ApprovalForAll",
      "type": "event"
    },
    {
      "anonymous": false,
      "inputs": [
        {
          "indexed": false,
          "internalType": "uint256",
          "name": "_fromTokenId",
          "type": "uint256"
        },
        {
          "indexed": false,
          "internalType": "uint256",
          "name": "_toTokenId",
          "type": "uint256"
        }
      ],
      "name": "BatchMetadataUpdate",
      "type": "event"
    },
    {
      "anonymous": false,
      "inputs": [
        {
          "indexed": false,
          "internalType": "address",
          "name": "from",
          "type": "address"
        },
        {
          "indexed": false,
          "internalType": "address",
          "name": "to",
          "type": "address"
        },
        {
          "indexed": false,
          "internalType": "uint256",
          "name": "tokenId",
          "type": "uint256"
        }
      ],
      "name": "CredentialTransfer",
      "type": "event"
    },
    {
      "anonymous": false,
      "inputs": [
        {
          "indexed": true,
          "internalType": "address",
          "name": "from",
          "type": "address"
        },
        {
          "indexed": true,
          "internalType": "address",
          "name": "to",
          "type": "address"
        },
        {
          "indexed": true,
          "internalType": "uint256",
          "name": "tokenId",
          "type": "uint256"
        },
        {
          "indexed": false,
          "internalType": "enum IERC5484.BurnAuth",
          "name": "burnAuth",
          "type": "uint8"
        }
      ],
      "name": "Issued",
      "type": "event"
    },
    {
      "anonymous": false,
      "inputs": [
        {
          "indexed": true,
          "internalType": "address",
          "name": "issuer",
          "type": "address"
        },
        {
          "indexed": false,
          "internalType": "string",
          "name": "name",
          "type": "string"
        }
      ],
      "name": "IssuerAdded",
      "type": "event"
    },
    {
      "anonymous": false,
      "inputs": [
        {
          "indexed": false,
          "internalType": "uint256",
          "name": "_tokenId",
          "type": "uint256"
        }
      ],
      "name": "MetadataUpdate",
      "type": "event"
    },
    {
      "anonymous": false,
      "inputs": [
        {
          "indexed": true,
          "internalType": "address",
          "name": "from",
          "type": "address"
        },
        {
          "indexed": true,
          "internalType": "address",
          "name": "to",
          "type": "address"
        },
        {
          "indexed": true,
          "internalType": "uint256",
          "name": "tokenId",
          "type": "uint256"
        }
      ],
      "name": "Transfer",
      "type": "event"
    },
    {
      "anonymous": false,
      "inputs": [
        {
          "indexed": true,
          "internalType": "uint256",
          "name": "tokenId",
          "type": "uint256"
        },
        {
          "indexed": true,
          "internalType": "address",
          "name": "newGuard",
          "type": "address"
        },
        {
          "indexed": false,
          "internalType": "address",
          "name": "oldGuard",
          "type": "address"
        },
        {
          "indexed": false,
          "internalType": "uint64",
          "name": "expires",
          "type": "uint64"
        }
      ],
      "name": "UpdateGuardLog",
      "type": "event"
    },
    {
      "inputs": [
        {
          "internalType": "address",
          "name": "_address",
          "type": "address"
        },
        {
          "internalType": "string",
          "name": "_issuerName",
          "type": "string"
        }
      ],
      "name": "addNewIssuer",
      "outputs": [],
      "stateMutability": "nonpayable",
      "type": "function"
    },
    {
      "inputs": [
        {
          "internalType": "address",
          "name": "to",
          "type": "address"
        },
        {
          "internalType": "uint256",
          "name": "tokenId",
          "type": "uint256"
        }
      ],
      "name": "approve",
      "outputs": [],
      "stateMutability": "nonpayable",
      "type": "function"
    },
    {
      "inputs": [
        {
          "internalType": "address",
          "name": "owner",
          "type": "address"
        }
      ],
      "name": "balanceOf",
      "outputs": [
        {
          "internalType": "uint256",
          "name": "",
          "type": "uint256"
        }
      ],
      "stateMutability": "view",
      "type": "function"
    },
    {
      "inputs": [
        {
          "internalType": "uint256",
          "name": "tokenId",
          "type": "uint256"
        }
      ],
      "name": "burnAuth",
      "outputs": [
        {
          "internalType": "enum IERC5484.BurnAuth",
          "name": "",
          "type": "uint8"
        }
      ],
      "stateMutability": "view",
      "type": "function"
    },
    {
      "inputs": [
        {
          "internalType": "bytes32",
          "name": "_bytes32",
          "type": "bytes32"
        }
      ],
      "name": "bytes32ToString",
      "outputs": [
        {
          "internalType": "string",
          "name": "",
          "type": "string"
        }
      ],
      "stateMutability": "pure",
      "type": "function"
    },
    {
      "inputs": [
        {
          "internalType": "uint256",
          "name": "tokenId",
          "type": "uint256"
        },
        {
          "internalType": "address",
          "name": "newGuard",
          "type": "address"
        },
        {
          "internalType": "uint64",
          "name": "expires",
          "type": "uint64"
        }
      ],
      "name": "changeGuard",
      "outputs": [],
      "stateMutability": "nonpayable",
      "type": "function"
    },
    {
      "inputs": [],
      "name": "getAllowFreelyAssignGuardian",
      "outputs": [
        {
          "internalType": "bool",
          "name": "",
          "type": "bool"
        }
      ],
      "stateMutability": "view",
      "type": "function"
    },
    {
      "inputs": [
        {
          "internalType": "uint256",
          "name": "tokenId",
          "type": "uint256"
        }
      ],
      "name": "getApproved",
      "outputs": [
        {
          "internalType": "address",
          "name": "",
          "type": "address"
        }
      ],
      "stateMutability": "view",
      "type": "function"
    },
    {
      "inputs": [
        {
          "internalType": "uint256",
          "name": "tokenId",
          "type": "uint256"
        }
      ],
      "name": "getCredentialMetadataCID",
      "outputs": [
        {
          "internalType": "string",
          "name": "",
          "type": "string"
        }
      ],
      "stateMutability": "view",
      "type": "function"
    },
    {
      "inputs": [],
      "name": "getCurrentTimestamp",
      "outputs": [
        {
          "internalType": "uint256",
          "name": "",
          "type": "uint256"
        }
      ],
      "stateMutability": "view",
      "type": "function"
    },
    {
      "inputs": [],
      "name": "getGuardedList",
      "outputs": [
        {
          "components": [
            {
              "internalType": "uint256",
              "name": "tokenId",
              "type": "uint256"
            },
            {
              "internalType": "string",
              "name": "uri",
              "type": "string"
            },
            {
              "internalType": "bool",
              "name": "irc",
              "type": "bool"
            },
            {
              "internalType": "string",
              "name": "metadata_cid",
              "type": "string"
            }
          ],
          "internalType": "struct VerifiableCredential.CredentialInfo[]",
          "name": "",
          "type": "tuple[]"
        }
      ],
      "stateMutability": "view",
      "type": "function"
    },
    {
      "inputs": [],
      "name": "getIssuedToken",
      "outputs": [
        {
          "components": [
            {
              "internalType": "uint256",
              "name": "tokenId",
              "type": "uint256"
            },
            {
              "internalType": "string",
              "name": "uri",
              "type": "string"
            },
            {
              "internalType": "bool",
              "name": "irc",
              "type": "bool"
            },
            {
              "internalType": "string",
              "name": "metadata_cid",
              "type": "string"
            }
          ],
          "internalType": "struct VerifiableCredential.CredentialInfo[]",
          "name": "",
          "type": "tuple[]"
        }
      ],
      "stateMutability": "view",
      "type": "function"
    },
    {
      "inputs": [
        {
          "internalType": "address",
          "name": "issuerAddress",
          "type": "address"
        }
      ],
      "name": "getIssuerName",
      "outputs": [
        {
          "internalType": "string",
          "name": "",
          "type": "string"
        }
      ],
      "stateMutability": "view",
      "type": "function"
    },
    {
      "inputs": [],
      "name": "getTokenList",
      "outputs": [
        {
          "components": [
            {
              "internalType": "uint256",
              "name": "tokenId",
              "type": "uint256"
            },
            {
              "internalType": "string",
              "name": "uri",
              "type": "string"
            },
            {
              "internalType": "bool",
              "name": "irc",
              "type": "bool"
            },
            {
              "internalType": "string",
              "name": "metadata_cid",
              "type": "string"
            }
          ],
          "internalType": "struct VerifiableCredential.CredentialInfo[]",
          "name": "",
          "type": "tuple[]"
        }
      ],
      "stateMutability": "view",
      "type": "function"
    },
    {
      "inputs": [
        {
          "internalType": "uint256",
          "name": "tokenId",
          "type": "uint256"
        }
      ],
      "name": "guardInfo",
      "outputs": [
        {
          "internalType": "address",
          "name": "",
          "type": "address"
        },
        {
          "internalType": "uint64",
          "name": "",
          "type": "uint64"
        }
      ],
      "stateMutability": "view",
      "type": "function"
    },
    {
      "inputs": [
        {
          "internalType": "address",
          "name": "owner",
          "type": "address"
        },
        {
          "internalType": "address",
          "name": "operator",
          "type": "address"
        }
      ],
      "name": "isApprovedForAll",
      "outputs": [
        {
          "internalType": "bool",
          "name": "",
          "type": "bool"
        }
      ],
      "stateMutability": "view",
      "type": "function"
    },
    {
      "inputs": [
        {
          "internalType": "string",
          "name": "credential_uid",
          "type": "string"
        }
      ],
      "name": "isRevoked",
      "outputs": [
        {
          "internalType": "bool",
          "name": "",
          "type": "bool"
        }
      ],
      "stateMutability": "view",
      "type": "function"
    },
    {
      "inputs": [
        {
          "internalType": "address",
          "name": "to",
          "type": "address"
        },
        {
          "internalType": "uint256",
          "name": "tokenId",
          "type": "uint256"
        },
        {
          "internalType": "string",
          "name": "certificate_uid",
          "type": "string"
        },
        {
          "internalType": "string",
          "name": "uri",
          "type": "string"
        },
        {
          "internalType": "string",
          "name": "metadata_cid",
          "type": "string"
        },
        {
          "internalType": "bool",
          "name": "irc",
          "type": "bool"
        }
      ],
      "name": "issueCredential",
      "outputs": [],
      "stateMutability": "nonpayable",
      "type": "function"
    },
    {
      "inputs": [
        {
          "internalType": "address",
          "name": "",
          "type": "address"
        }
      ],
      "name": "issuers_list",
      "outputs": [
        {
          "internalType": "bytes32",
          "name": "",
          "type": "bytes32"
        }
      ],
      "stateMutability": "view",
      "type": "function"
    },
    {
      "inputs": [],
      "name": "name",
      "outputs": [
        {
          "internalType": "string",
          "name": "",
          "type": "string"
        }
      ],
      "stateMutability": "view",
      "type": "function"
    },
    {
      "inputs": [
        {
          "internalType": "uint256",
          "name": "tokenId",
          "type": "uint256"
        }
      ],
      "name": "ownerOf",
      "outputs": [
        {
          "internalType": "address",
          "name": "",
          "type": "address"
        }
      ],
      "stateMutability": "view",
      "type": "function"
    },
    {
      "inputs": [
        {
          "internalType": "uint256",
          "name": "tokenId",
          "type": "uint256"
        }
      ],
      "name": "removeGuard",
      "outputs": [],
      "stateMutability": "nonpayable",
      "type": "function"
    },
    {
      "inputs": [
        {
          "internalType": "uint256",
          "name": "tokenId",
          "type": "uint256"
        },
        {
          "internalType": "string",
          "name": "credential_uid",
          "type": "string"
        }
      ],
      "name": "revokeCredential",
      "outputs": [],
      "stateMutability": "nonpayable",
      "type": "function"
    },
    {
      "inputs": [
        {
          "internalType": "string",
          "name": "",
          "type": "string"
        }
      ],
      "name": "revoked_credentials",
      "outputs": [
        {
          "internalType": "bool",
          "name": "",
          "type": "bool"
        }
      ],
      "stateMutability": "view",
      "type": "function"
    },
    {
      "inputs": [
        {
          "internalType": "address",
          "name": "from",
          "type": "address"
        },
        {
          "internalType": "address",
          "name": "to",
          "type": "address"
        },
        {
          "internalType": "uint256",
          "name": "tokenId",
          "type": "uint256"
        }
      ],
      "name": "safeTransferFrom",
      "outputs": [],
      "stateMutability": "nonpayable",
      "type": "function"
    },
    {
      "inputs": [
        {
          "internalType": "address",
          "name": "from",
          "type": "address"
        },
        {
          "internalType": "address",
          "name": "to",
          "type": "address"
        },
        {
          "internalType": "uint256",
          "name": "tokenId",
          "type": "uint256"
        },
        {
          "internalType": "bytes",
          "name": "_data",
          "type": "bytes"
        }
      ],
      "name": "safeTransferFrom",
      "outputs": [],
      "stateMutability": "nonpayable",
      "type": "function"
    },
    {
      "inputs": [
        {
          "internalType": "address",
          "name": "operator",
          "type": "address"
        },
        {
          "internalType": "bool",
          "name": "approved",
          "type": "bool"
        }
      ],
      "name": "setApprovalForAll",
      "outputs": [],
      "stateMutability": "nonpayable",
      "type": "function"
    },
    {
      "inputs": [
        {
          "internalType": "string",
          "name": "source",
          "type": "string"
        }
      ],
      "name": "stringToBytes32",
      "outputs": [
        {
          "internalType": "bytes32",
          "name": "result",
          "type": "bytes32"
        }
      ],
      "stateMutability": "pure",
      "type": "function"
    },
    {
      "inputs": [
        {
          "internalType": "bytes4",
          "name": "interfaceId",
          "type": "bytes4"
        }
      ],
      "name": "supportsInterface",
      "outputs": [
        {
          "internalType": "bool",
          "name": "",
          "type": "bool"
        }
      ],
      "stateMutability": "view",
      "type": "function"
    },
    {
      "inputs": [],
      "name": "symbol",
      "outputs": [
        {
          "internalType": "string",
          "name": "",
          "type": "string"
        }
      ],
      "stateMutability": "view",
      "type": "function"
    },
    {
      "inputs": [],
      "name": "tokenCounter",
      "outputs": [
        {
          "internalType": "uint256",
          "name": "",
          "type": "uint256"
        }
      ],
      "stateMutability": "view",
      "type": "function"
    },
    {
      "inputs": [
        {
          "internalType": "uint256",
          "name": "tokenId",
          "type": "uint256"
        }
      ],
      "name": "tokenURI",
      "outputs": [
        {
          "internalType": "string",
          "name": "",
          "type": "string"
        }
      ],
      "stateMutability": "view",
      "type": "function"
    },
    {
      "inputs": [
        {
          "internalType": "address",
          "name": "from",
          "type": "address"
        },
        {
          "internalType": "address",
          "name": "to",
          "type": "address"
        },
        {
          "internalType": "uint256",
          "name": "tokenId",
          "type": "uint256"
        }
      ],
      "name": "transferAndRemove",
      "outputs": [],
      "stateMutability": "nonpayable",
      "type": "function"
    },
    {
      "inputs": [
        {
          "internalType": "address",
          "name": "from",
          "type": "address"
        },
        {
          "internalType": "address",
          "name": "to",
          "type": "address"
        },
        {
          "internalType": "uint256",
          "name": "tokenId",
          "type": "uint256"
        }
      ],
      "name": "transferFrom",
      "outputs": [],
      "stateMutability": "nonpayable",
      "type": "function"
    }
  ],
  "bytecode": "0x60806040523480156200001157600080fd5b506040516200620038038062006200833981810160405281019062000037919062000159565b6040518060400160405280601481526020017f56657269666961626c6543726564656e7469616c0000000000000000000000008152506040518060400160405280600281526020017f56430000000000000000000000000000000000000000000000000000000000008152508160009081620000b4919062000405565b508060019081620000c6919062000405565b505050620000e060076200010160201b620021fb1760201c565b80600860006101000a81548160ff02191690831515021790555050620004ec565b6001816000016000828254019250508190555050565b600080fd5b60008115159050919050565b62000133816200011c565b81146200013f57600080fd5b50565b600081519050620001538162000128565b92915050565b60006020828403121562000172576200017162000117565b5b6000620001828482850162000142565b91505092915050565b600081519050919050565b7f4e487b7100000000000000000000000000000000000000000000000000000000600052604160045260246000fd5b7f4e487b7100000000000000000000000000000000000000000000000000000000600052602260045260246000fd5b600060028204905060018216806200020d57607f821691505b602082108103620002235762000222620001c5565b5b50919050565b60008190508160005260206000209050919050565b60006020601f8301049050919050565b600082821b905092915050565b6000600883026200028d7fffffffffffffffffffffffffffffffffffffffffffffffffffffffffffffffff826200024e565b6200029986836200024e565b95508019841693508086168417925050509392505050565b6000819050919050565b6000819050919050565b6000620002e6620002e0620002da84620002b1565b620002bb565b620002b1565b9050919050565b6000819050919050565b6200030283620002c5565b6200031a6200031182620002ed565b8484546200025b565b825550505050565b600090565b6200033162000322565b6200033e818484620002f7565b505050565b5b8181101562000366576200035a60008262000327565b60018101905062000344565b5050565b601f821115620003b5576200037f8162000229565b6200038a846200023e565b810160208510156200039a578190505b620003b2620003a9856200023e565b83018262000343565b50505b505050565b600082821c905092915050565b6000620003da60001984600802620003ba565b1980831691505092915050565b6000620003f58383620003c7565b9150826002028217905092915050565b62000410826200018b565b67ffffffffffffffff8111156200042c576200042b62000196565b5b620004388254620001f4565b620004458282856200036a565b600060209050601f8311600181146200047d576000841562000468578287015190505b620004748582620003e7565b865550620004e4565b601f1984166200048d8662000229565b60005b82811015620004b75784890151825560018201915060208501945060208101905062000490565b86831015620004d75784890151620004d3601f891682620003c7565b8355505b6001600288020188555050505b505050505050565b615d0480620004fc6000396000f3fe608060405234801561001057600080fd5b50600436106102065760003560e01c80636c9230db1161011a578063b4652ae5116100ad578063d082e3811161007c578063d082e38114610635578063d37c055314610653578063d7e69d5514610683578063da52d9bc146106b4578063e985e9c5146106d057610206565b8063b4652ae51461059d578063b88d4fde146105b9578063c87b56dd146105d5578063cfb519281461060557610206565b8063957a3205116100e9578063957a32051461052957806395d89b4114610545578063a22cb46514610563578063a406d3411461057f57610206565b80636c9230db1461048f57806370a08231146104ad5780638b00d581146104dd5780639201de55146104f957610206565b80630fcc7e5b1161019d5780632c6a6bfa1161016c5780632c6a6bfa146103c5578063301a2b5f146103f557806335168a001461041357806342842e0e146104435780636352211e1461045f57610206565b80630fcc7e5b14610353578063187074be1461036f57806323b872dd1461038b578063273cbaa0146103a757610206565b8063077f8f58116101d9578063077f8f58146102a757806307ec312a146102d7578063081812fc14610307578063095ea7b31461033757610206565b806301ffc9a71461020b5780630489b56f1461023b5780630561017c1461026b57806306fdde0314610289575b600080fd5b61022560048036038101906102209190613db2565b610700565b6040516102329190613dfa565b60405180910390f35b61025560048036038101906102509190613e4b565b6107e2565b6040516102629190613eef565b60405180910390f35b61027361080c565b60405161028091906140e4565b60405180910390f35b610291610a5c565b60405161029e9190614150565b60405180910390f35b6102c160048036038101906102bc9190613e4b565b610aee565b6040516102ce9190614150565b60405180910390f35b6102f160048036038101906102ec91906141d0565b610d09565b6040516102fe9190614150565b60405180910390f35b610321600480360381019061031c9190613e4b565b610d60565b60405161032e919061420c565b60405180910390f35b610351600480360381019061034c9190614227565b610da6565b005b61036d60048036038101906103689190614267565b610ebd565b005b610389600480360381019061038491906143ef565b610ed6565b005b6103a560048036038101906103a09190614267565b610f7a565b005b6103af6110d9565b6040516103bc91906140e4565b60405180910390f35b6103df60048036038101906103da919061444b565b611329565b6040516103ec9190613dfa565b60405180910390f35b6103fd61135f565b60405161040a9190613dfa565b60405180910390f35b61042d6004803603810190610428919061444b565b611376565b60405161043a9190613dfa565b60405180910390f35b61045d60048036038101906104589190614267565b6113ab565b005b61047960048036038101906104749190613e4b565b6113cb565b604051610486919061420c565b60405180910390f35b610497611451565b6040516104a491906144a3565b60405180910390f35b6104c760048036038101906104c291906141d0565b611459565b6040516104d491906144a3565b60405180910390f35b6104f760048036038101906104f291906144ea565b611510565b005b610513600480360381019061050e9190614601565b611705565b6040516105209190614150565b60405180910390f35b610543600480360381019061053e919061462e565b6118a0565b005b61054d611b56565b60405161055a9190614150565b60405180910390f35b61057d6004803603810190610578919061468a565b611be8565b005b610587611bfe565b60405161059491906140e4565b60405180910390f35b6105b760048036038101906105b2919061470a565b611e51565b005b6105d360048036038101906105ce91906147fe565b611f16565b005b6105ef60048036038101906105ea9190613e4b565b61203c565b6040516105fc9190614150565b60405180910390f35b61061f600480360381019061061a919061444b565b61204e565b60405161062c9190614890565b60405180910390f35b61063d612077565b60405161064a91906144a3565b60405180910390f35b61066d600480360381019061066891906141d0565b612088565b60405161067a9190614890565b60405180910390f35b61069d60048036038101906106989190613e4b565b6120a0565b6040516106ab9291906148ba565b60405180910390f35b6106ce60048036038101906106c99190613e4b565b612156565b005b6106ea60048036038101906106e591906148e3565b612167565b6040516106f79190613dfa565b60405180910390f35b60007fb61d1057000000000000000000000000000000000000000000000000000000007bffffffffffffffffffffffffffffffffffffffffffffffffffffffff1916827bffffffffffffffffffffffffffffffffffffffffffffffffffffffff191614806107cb57507f0489b56f000000000000000000000000000000000000000000000000000000007bffffffffffffffffffffffffffffffffffffffffffffffffffffffff1916827bffffffffffffffffffffffffffffffffffffffffffffffffffffffff1916145b806107db57506107da82612211565b5b9050919050565b60006009600083815260200190815260200160002060009054906101000a900460ff169050919050565b60606000610818612077565b905060008167ffffffffffffffff811115610836576108356142c4565b5b60405190808252806020026020018201604052801561086f57816020015b61085c613cbf565b8152602001906001900390816108545790505b509050600080600190505b838110156109a1573373ffffffffffffffffffffffffffffffffffffffff16600b600083815260200190815260200160002060009054906101000a900473ffffffffffffffffffffffffffffffffffffffff1673ffffffffffffffffffffffffffffffffffffffff160361098e57600081905060006108f88261203c565b905060006011600084815260200190815260200160002060009054906101000a900460ff1661092857600061092b565b60015b9050600061093884610aee565b905060405180608001604052808581526020018481526020018315158152602001828152508787815181106109705761096f614923565b5b6020026020010181905250858061098690614981565b965050505050505b808061099990614981565b91505061087a565b5060008167ffffffffffffffff8111156109be576109bd6142c4565b5b6040519080825280602002602001820160405280156109f757816020015b6109e4613cbf565b8152602001906001900390816109dc5790505b50905060005b82811015610a5157838181518110610a1857610a17614923565b5b6020026020010151828281518110610a3357610a32614923565b5b60200260200101819052508080610a4990614981565b9150506109fd565b508094505050505090565b606060008054610a6b906149f8565b80601f0160208091040260200160405190810160405280929190818152602001828054610a97906149f8565b8015610ae45780601f10610ab957610100808354040283529160200191610ae4565b820191906000526020600020905b815481529060010190602001808311610ac757829003601f168201915b5050505050905090565b60603373ffffffffffffffffffffffffffffffffffffffff16600a600084815260200190815260200160002060009054906101000a900473ffffffffffffffffffffffffffffffffffffffff1673ffffffffffffffffffffffffffffffffffffffff161480610bbb57503373ffffffffffffffffffffffffffffffffffffffff16600b600084815260200190815260200160002060009054906101000a900473ffffffffffffffffffffffffffffffffffffffff1673ffffffffffffffffffffffffffffffffffffffff16145b80610c2757503373ffffffffffffffffffffffffffffffffffffffff16600c600084815260200190815260200160002060000160009054906101000a900473ffffffffffffffffffffffffffffffffffffffff1673ffffffffffffffffffffffffffffffffffffffff16145b610c66576040517f08c379a0000000000000000000000000000000000000000000000000000000008152600401610c5d90614ac1565b60405180910390fd5b600e60008381526020019081526020016000208054610c84906149f8565b80601f0160208091040260200160405190810160405280929190818152602001828054610cb0906149f8565b8015610cfd5780601f10610cd257610100808354040283529160200191610cfd565b820191906000526020600020905b815481529060010190602001808311610ce057829003601f168201915b50505050509050919050565b60606000610d55600d60008573ffffffffffffffffffffffffffffffffffffffff1673ffffffffffffffffffffffffffffffffffffffff16815260200190815260200160002054611705565b905080915050919050565b6000610d6b82612272565b6004600083815260200190815260200160002060009054906101000a900473ffffffffffffffffffffffffffffffffffffffff169050919050565b6000610db1826113cb565b90508073ffffffffffffffffffffffffffffffffffffffff168373ffffffffffffffffffffffffffffffffffffffff1603610e21576040517f08c379a0000000000000000000000000000000000000000000000000000000008152600401610e1890614b53565b60405180910390fd5b8073ffffffffffffffffffffffffffffffffffffffff16610e406122bd565b73ffffffffffffffffffffffffffffffffffffffff161480610e6f5750610e6e81610e696122bd565b612167565b5b610eae576040517f08c379a0000000000000000000000000000000000000000000000000000000008152600401610ea590614be5565b60405180910390fd5b610eb883836122c5565b505050565b610ec88383836113ab565b610ed181612156565b505050565b6000610ee18261204e565b905080600d60008573ffffffffffffffffffffffffffffffffffffffff1673ffffffffffffffffffffffffffffffffffffffff168152602001908152602001600020819055508273ffffffffffffffffffffffffffffffffffffffff167fbffc9e6add894cdc9f3243f85aaf5e65d6f6284f63658ea53ea9dd241e4276d883604051610f6d9190614150565b60405180910390a2505050565b600080849050600073ffffffffffffffffffffffffffffffffffffffff168573ffffffffffffffffffffffffffffffffffffffff161461103a57610fbd8361237e565b9150610fc8836113cb565b9050600073ffffffffffffffffffffffffffffffffffffffff168273ffffffffffffffffffffffffffffffffffffffff1603611039576040517f08c379a000000000000000000000000000000000000000000000000000000000815260040161103090614c77565b60405180910390fd5b5b611045818585612451565b83600a600085815260200190815260200160002060006101000a81548173ffffffffffffffffffffffffffffffffffffffff021916908373ffffffffffffffffffffffffffffffffffffffff1602179055507f2b3ef172e65fd6742e720651f07c24d0222fdaa285330648444ac44659b9b63e8185856040516110ca93929190614c97565b60405180910390a15050505050565b606060006110e5612077565b905060008167ffffffffffffffff811115611103576111026142c4565b5b60405190808252806020026020018201604052801561113c57816020015b611129613cbf565b8152602001906001900390816111215790505b509050600080600190505b8381101561126e573373ffffffffffffffffffffffffffffffffffffffff16600a600083815260200190815260200160002060009054906101000a900473ffffffffffffffffffffffffffffffffffffffff1673ffffffffffffffffffffffffffffffffffffffff160361125b57600081905060006111c58261203c565b905060006011600084815260200190815260200160002060009054906101000a900460ff166111f55760006111f8565b60015b9050600061120584610aee565b9050604051806080016040528085815260200184815260200183151581526020018281525087878151811061123d5761123c614923565b5b6020026020010181905250858061125390614981565b965050505050505b808061126690614981565b915050611147565b5060008167ffffffffffffffff81111561128b5761128a6142c4565b5b6040519080825280602002602001820160405280156112c457816020015b6112b1613cbf565b8152602001906001900390816112a95790505b50905060005b8281101561131e578381815181106112e5576112e4614923565b5b6020026020010151828281518110611300576112ff614923565b5b6020026020010181905250808061131690614981565b9150506112ca565b508094505050505090565b6010818051602081018201805184825260208301602085012081835280955050505050506000915054906101000a900460ff1681565b6000600860009054906101000a900460ff16905090565b60006010826040516113889190614d0a565b908152602001604051809103902060009054906101000a900460ff169050919050565b6113c683838360405180602001604052806000815250611f16565b505050565b6000806113d78361274a565b9050600073ffffffffffffffffffffffffffffffffffffffff168173ffffffffffffffffffffffffffffffffffffffff1603611448576040517f08c379a000000000000000000000000000000000000000000000000000000000815260040161143f90614d6d565b60405180910390fd5b80915050919050565b600042905090565b60008073ffffffffffffffffffffffffffffffffffffffff168273ffffffffffffffffffffffffffffffffffffffff16036114c9576040517f08c379a00000000000000000000000000000000000000000000000000000000081526004016114c090614dff565b60405180910390fd5b600360008373ffffffffffffffffffffffffffffffffffffffff1673ffffffffffffffffffffffffffffffffffffffff168152602001908152602001600020549050919050565b600073ffffffffffffffffffffffffffffffffffffffff16600a600087815260200190815260200160002060009054906101000a900473ffffffffffffffffffffffffffffffffffffffff1673ffffffffffffffffffffffffffffffffffffffff16146115b2576040517f08c379a00000000000000000000000000000000000000000000000000000000081526004016115a990614e6b565b60405180910390fd5b6000600f856040516115c49190614d0a565b908152602001604051809103902080546115dd906149f8565b80601f0160208091040260200160405190810160405280929190818152602001828054611609906149f8565b80156116565780601f1061162b57610100808354040283529160200191611656565b820191906000526020600020905b81548152906001019060200180831161163957829003601f168201915b5050505050905060008151146116a1576040517f08c379a000000000000000000000000000000000000000000000000000000000815260040161169890614efd565b60405180910390fd5b6116af878786600286612787565b82600e600088815260200190815260200160002090816116cf91906150c9565b5082600f866040516116e19190614d0a565b908152602001604051809103902090816116fb91906150c9565b5050505050505050565b606060005b60208160ff1610801561175c5750600060f81b838260ff166020811061173357611732614923565b5b1a60f81b7effffffffffffffffffffffffffffffffffffffffffffffffffffffffffffff191614155b1561177457808061176c906151a8565b91505061170a565b60008160ff1667ffffffffffffffff811115611793576117926142c4565b5b6040519080825280601f01601f1916602001820160405280156117c55781602001600182028036833780820191505090505b509050600091505b60208260ff1610801561181f5750600060f81b848360ff16602081106117f6576117f5614923565b5b1a60f81b7effffffffffffffffffffffffffffffffffffffffffffffffffffffffffffff191614155b1561189657838260ff166020811061183a57611839614923565b5b1a60f81b818360ff168151811061185457611853614923565b5b60200101907effffffffffffffffffffffffffffffffffffffffffffffffffffffffffffff1916908160001a905350818061188e906151a8565b9250506117cd565b8092505050919050565b6000600b600084815260200190815260200160002060009054906101000a900473ffffffffffffffffffffffffffffffffffffffff1690506000600a600085815260200190815260200160002060009054906101000a900473ffffffffffffffffffffffffffffffffffffffff16905060006009600086815260200190815260200160002060009054906101000a900460ff1690506002600381111561194957611948613e78565b5b81600381111561195c5761195b613e78565b5b1480156119ca57508273ffffffffffffffffffffffffffffffffffffffff163373ffffffffffffffffffffffffffffffffffffffff1614806119c957508173ffffffffffffffffffffffffffffffffffffffff163373ffffffffffffffffffffffffffffffffffffffff16145b5b80611a305750600060038111156119e4576119e3613e78565b5b8160038111156119f7576119f6613e78565b5b148015611a2f57508273ffffffffffffffffffffffffffffffffffffffff163373ffffffffffffffffffffffffffffffffffffffff16145b5b80611a96575060016003811115611a4a57611a49613e78565b5b816003811115611a5d57611a5c613e78565b5b148015611a9557508173ffffffffffffffffffffffffffffffffffffffff163373ffffffffffffffffffffffffffffffffffffffff16145b5b80611aa65750611aa58261296c565b5b611ae5576040517f08c379a0000000000000000000000000000000000000000000000000000000008152600401611adc90615243565b60405180910390fd5b611aee8561297f565b600f84604051611afe9190614d0a565b90815260200160405180910390206000611b189190613ce9565b6001601085604051611b2a9190614d0a565b908152602001604051809103902060006101000a81548160ff0219169083151502179055505050505050565b606060018054611b65906149f8565b80601f0160208091040260200160405190810160405280929190818152602001828054611b91906149f8565b8015611bde5780601f10611bb357610100808354040283529160200191611bde565b820191906000526020600020905b815481529060010190602001808311611bc157829003601f168201915b5050505050905090565b611bfa611bf36122bd565b8383612b3d565b5050565b60606000611c0a612077565b905060008167ffffffffffffffff811115611c2857611c276142c4565b5b604051908082528060200260200182016040528015611c6157816020015b611c4e613cbf565b815260200190600190039081611c465790505b509050600080600190505b83811015611d96573373ffffffffffffffffffffffffffffffffffffffff16600c600083815260200190815260200160002060000160009054906101000a900473ffffffffffffffffffffffffffffffffffffffff1673ffffffffffffffffffffffffffffffffffffffff1603611d835760008190506000611ced8261203c565b905060006011600084815260200190815260200160002060009054906101000a900460ff16611d1d576000611d20565b60015b90506000611d2d84610aee565b90506040518060800160405280858152602001848152602001831515815260200182815250878781518110611d6557611d64614923565b5b60200260200101819052508580611d7b90614981565b965050505050505b8080611d8e90614981565b915050611c6c565b5060008167ffffffffffffffff811115611db357611db26142c4565b5b604051908082528060200260200182016040528015611dec57816020015b611dd9613cbf565b815260200190600190039081611dd15790505b50905060005b82811015611e4657838181518110611e0d57611e0c614923565b5b6020026020010151828281518110611e2857611e27614923565b5b60200260200101819052508080611e3e90614981565b915050611df2565b508094505050505090565b600115156011600085815260200190815260200160002060009054906101000a900460ff16151514611eb8576040517f08c379a0000000000000000000000000000000000000000000000000000000008152600401611eaf906152d5565b60405180910390fd5b428167ffffffffffffffff1611611f04576040517f08c379a0000000000000000000000000000000000000000000000000000000008152600401611efb90615341565b60405180910390fd5b611f118383836000612ca9565b505050565b600080859050600073ffffffffffffffffffffffffffffffffffffffff168673ffffffffffffffffffffffffffffffffffffffff1614611fd657611f598461237e565b9150611f64846113cb565b9050600073ffffffffffffffffffffffffffffffffffffffff168273ffffffffffffffffffffffffffffffffffffffff1603611fd5576040517f08c379a0000000000000000000000000000000000000000000000000000000008152600401611fcc90614c77565b60405180910390fd5b5b611fe281868686613043565b84600a600086815260200190815260200160002060006101000a81548173ffffffffffffffffffffffffffffffffffffffff021916908373ffffffffffffffffffffffffffffffffffffffff160217905550505050505050565b60606120478261309f565b9050919050565b6000808290506000815103612069576000801b915050612072565b60208301519150505b919050565b600061208360076131b1565b905090565b600d6020528060005260406000206000915090505481565b60008042600c600085815260200190815260200160002060000160149054906101000a900467ffffffffffffffff1667ffffffffffffffff161061214957600c600084815260200190815260200160002060000160009054906101000a900473ffffffffffffffffffffffffffffffffffffffff16600c600085815260200190815260200160002060000160149054906101000a900467ffffffffffffffff1691509150612151565b600080915091505b915091565b612164816000806001612ca9565b50565b6000600560008473ffffffffffffffffffffffffffffffffffffffff1673ffffffffffffffffffffffffffffffffffffffff16815260200190815260200160002060008373ffffffffffffffffffffffffffffffffffffffff1673ffffffffffffffffffffffffffffffffffffffff16815260200190815260200160002060009054906101000a900460ff16905092915050565b6001816000016000828254019250508190555050565b6000634906490660e01b7bffffffffffffffffffffffffffffffffffffffffffffffffffffffff1916827bffffffffffffffffffffffffffffffffffffffffffffffffffffffff1916148061226b575061226a826131bf565b5b9050919050565b61227b816132a1565b6122ba576040517f08c379a00000000000000000000000000000000000000000000000000000000081526004016122b190614d6d565b60405180910390fd5b50565b600033905090565b816004600083815260200190815260200160002060006101000a81548173ffffffffffffffffffffffffffffffffffffffff021916908373ffffffffffffffffffffffffffffffffffffffff160217905550808273ffffffffffffffffffffffffffffffffffffffff16612338836113cb565b73ffffffffffffffffffffffffffffffffffffffff167f8c5be1e5ebec7d5bd14f71427d1e84f3dd0314c0f7b2291e5b200ac8c7c3b92560405160405180910390a45050565b60008061238a836120a0565b50905060006123976122bd565b9050600073ffffffffffffffffffffffffffffffffffffffff168273ffffffffffffffffffffffffffffffffffffffff1614612445578073ffffffffffffffffffffffffffffffffffffffff168273ffffffffffffffffffffffffffffffffffffffff161461243b576040517f08c379a0000000000000000000000000000000000000000000000000000000008152600401612432906153d3565b60405180910390fd5b819250505061244c565b6000925050505b919050565b8273ffffffffffffffffffffffffffffffffffffffff16612471826113cb565b73ffffffffffffffffffffffffffffffffffffffff16146124c7576040517f08c379a00000000000000000000000000000000000000000000000000000000081526004016124be90615465565b60405180910390fd5b600073ffffffffffffffffffffffffffffffffffffffff168273ffffffffffffffffffffffffffffffffffffffff1603612536576040517f08c379a000000000000000000000000000000000000000000000000000000000815260040161252d906154f7565b60405180910390fd5b61254383838360016132e2565b8273ffffffffffffffffffffffffffffffffffffffff16612563826113cb565b73ffffffffffffffffffffffffffffffffffffffff16146125b9576040517f08c379a00000000000000000000000000000000000000000000000000000000081526004016125b090615465565b60405180910390fd5b6004600082815260200190815260200160002060006101000a81549073ffffffffffffffffffffffffffffffffffffffff02191690556001600360008573ffffffffffffffffffffffffffffffffffffffff1673ffffffffffffffffffffffffffffffffffffffff168152602001908152602001600020600082825403925050819055506001600360008473ffffffffffffffffffffffffffffffffffffffff1673ffffffffffffffffffffffffffffffffffffffff16815260200190815260200160002060008282540192505081905550816002600083815260200190815260200160002060006101000a81548173ffffffffffffffffffffffffffffffffffffffff021916908373ffffffffffffffffffffffffffffffffffffffff160217905550808273ffffffffffffffffffffffffffffffffffffffff168473ffffffffffffffffffffffffffffffffffffffff167fddf252ad1be2c89b69c2b068fc378daa952ba7f163c4a11628f55a4df523b3ef60405160405180910390a461274583838360016132e8565b505050565b60006002600083815260200190815260200160002060009054906101000a900473ffffffffffffffffffffffffffffffffffffffff169050919050565b61279185856132ee565b61279b848461330c565b816009600086815260200190815260200160002060006101000a81548160ff021916908360038111156127d1576127d0613e78565b5b021790555033600b600086815260200190815260200160002060006101000a81548173ffffffffffffffffffffffffffffffffffffffff021916908373ffffffffffffffffffffffffffffffffffffffff16021790555084600a600086815260200190815260200160002060006101000a81548173ffffffffffffffffffffffffffffffffffffffff021916908373ffffffffffffffffffffffffffffffffffffffff16021790555080156128ad5760016011600086815260200190815260200160002060006101000a81548160ff0219169083151502179055505b6128b760076121fb565b600860009054906101000a900460ff161580156128d15750805b156128ff5760006401e90b6d606128e6611451565b6128f09190615517565b90506128fd853383611e51565b505b838573ffffffffffffffffffffffffffffffffffffffff163373ffffffffffffffffffffffffffffffffffffffff167f135ffb3383e06280e062ac5095bbf8faa98517161e596a2536bd98a9a8b64a888560405161295d9190613eef565b60405180910390a45050505050565b600080823b905060008111915050919050565b600061298a826120a0565b509050600b600083815260200190815260200160002060006101000a81549073ffffffffffffffffffffffffffffffffffffffff0219169055600a600083815260200190815260200160002060006101000a81549073ffffffffffffffffffffffffffffffffffffffff02191690556009600083815260200190815260200160002060006101000a81549060ff0219169055600e60008381526020019081526020016000206000612a3b9190613ce9565b612a44826133b0565b600c6000838152602001908152602001600020600080820160006101000a81549073ffffffffffffffffffffffffffffffffffffffff02191690556000820160146101000a81549067ffffffffffffffff021916905550506011600083815260200190815260200160002060009054906101000a900460ff1615612ae6576011600083815260200190815260200160002060006101000a81549060ff02191690555b600073ffffffffffffffffffffffffffffffffffffffff16827f2700960061dd07fc2f2f287653312ad3c1f0d9307ac613c30dff7f6efbbf02c4836000604051612b3192919061558e565b60405180910390a35050565b8173ffffffffffffffffffffffffffffffffffffffff168373ffffffffffffffffffffffffffffffffffffffff1603612bab576040517f08c379a0000000000000000000000000000000000000000000000000000000008152600401612ba290615603565b60405180910390fd5b80600560008573ffffffffffffffffffffffffffffffffffffffff1673ffffffffffffffffffffffffffffffffffffffff16815260200190815260200160002060008473ffffffffffffffffffffffffffffffffffffffff1673ffffffffffffffffffffffffffffffffffffffff16815260200190815260200160002060006101000a81548160ff0219169083151502179055508173ffffffffffffffffffffffffffffffffffffffff168373ffffffffffffffffffffffffffffffffffffffff167f17307eab39ab6107e8899845ad3d59bd9653f200f220920489ca2b5937696c3183604051612c9c9190613dfa565b60405180910390a3505050565b6000612cb4856120a0565b50905081612d2c57600073ffffffffffffffffffffffffffffffffffffffff168473ffffffffffffffffffffffffffffffffffffffff1603612d2b576040517f08c379a0000000000000000000000000000000000000000000000000000000008152600401612d2290615695565b60405180910390fd5b5b600073ffffffffffffffffffffffffffffffffffffffff168173ffffffffffffffffffffffffffffffffffffffff1614612dda57612d686122bd565b73ffffffffffffffffffffffffffffffffffffffff168173ffffffffffffffffffffffffffffffffffffffff1614612dd5576040517f08c379a0000000000000000000000000000000000000000000000000000000008152600401612dcc9061580c565b60405180910390fd5b612ebb565b600860009054906101000a900460ff1615612e4457612e00612dfa6122bd565b866134fe565b612e3f576040517f08c379a0000000000000000000000000000000000000000000000000000000008152600401612e369061589e565b60405180910390fd5b612eba565b612e4c6122bd565b73ffffffffffffffffffffffffffffffffffffffff168473ffffffffffffffffffffffffffffffffffffffff1614612eb9576040517f08c379a0000000000000000000000000000000000000000000000000000000008152600401612eb09061597c565b60405180910390fd5b5b5b600073ffffffffffffffffffffffffffffffffffffffff168173ffffffffffffffffffffffffffffffffffffffff16141580612f245750600073ffffffffffffffffffffffffffffffffffffffff168473ffffffffffffffffffffffffffffffffffffffff1614155b1561303c5760405180604001604052808573ffffffffffffffffffffffffffffffffffffffff1681526020018467ffffffffffffffff16815250600c600087815260200190815260200160002060008201518160000160006101000a81548173ffffffffffffffffffffffffffffffffffffffff021916908373ffffffffffffffffffffffffffffffffffffffff16021790555060208201518160000160146101000a81548167ffffffffffffffff021916908367ffffffffffffffff1602179055509050508373ffffffffffffffffffffffffffffffffffffffff16857f2700960061dd07fc2f2f287653312ad3c1f0d9307ac613c30dff7f6efbbf02c483866040516130339291906148ba565b60405180910390a35b5050505050565b61304e848484612451565b61305a84848484613593565b613099576040517f08c379a000000000000000000000000000000000000000000000000000000000815260040161309090615a0e565b60405180910390fd5b50505050565b60606130aa82612272565b60006006600084815260200190815260200160002080546130ca906149f8565b80601f01602080910402602001604051908101604052809291908181526020018280546130f6906149f8565b80156131435780601f1061311857610100808354040283529160200191613143565b820191906000526020600020905b81548152906001019060200180831161312657829003601f168201915b50505050509050600061315461371a565b905060008151036131695781925050506131ac565b60008251111561319e578082604051602001613186929190615a2e565b604051602081830303815290604052925050506131ac565b6131a784613731565b925050505b919050565b600081600001549050919050565b60007f80ac58cd000000000000000000000000000000000000000000000000000000007bffffffffffffffffffffffffffffffffffffffffffffffffffffffff1916827bffffffffffffffffffffffffffffffffffffffffffffffffffffffff1916148061328a57507f5b5e139f000000000000000000000000000000000000000000000000000000007bffffffffffffffffffffffffffffffffffffffffffffffffffffffff1916827bffffffffffffffffffffffffffffffffffffffffffffffffffffffff1916145b8061329a575061329982613799565b5b9050919050565b60008073ffffffffffffffffffffffffffffffffffffffff166132c38361274a565b73ffffffffffffffffffffffffffffffffffffffff1614159050919050565b50505050565b50505050565b613308828260405180602001604052806000815250613803565b5050565b613315826132a1565b613354576040517f08c379a000000000000000000000000000000000000000000000000000000000815260040161334b90615ac4565b60405180910390fd5b8060066000848152602001908152602001600020908161337491906150c9565b507ff8e1a15aba9398e019f0b49df1a4fde98ee17ae345cb5f6b5e2c27f5033e8ce7826040516133a491906144a3565b60405180910390a15050565b60006133bb826113cb565b90506133cb8160008460016132e2565b6133d4826113cb565b90506004600083815260200190815260200160002060006101000a81549073ffffffffffffffffffffffffffffffffffffffff02191690556001600360008373ffffffffffffffffffffffffffffffffffffffff1673ffffffffffffffffffffffffffffffffffffffff168152602001908152602001600020600082825403925050819055506002600083815260200190815260200160002060006101000a81549073ffffffffffffffffffffffffffffffffffffffff021916905581600073ffffffffffffffffffffffffffffffffffffffff168273ffffffffffffffffffffffffffffffffffffffff167fddf252ad1be2c89b69c2b068fc378daa952ba7f163c4a11628f55a4df523b3ef60405160405180910390a46134fa8160008460016132e8565b5050565b60008061350a836113cb565b90508073ffffffffffffffffffffffffffffffffffffffff168473ffffffffffffffffffffffffffffffffffffffff16148061354c575061354b8185612167565b5b8061358a57508373ffffffffffffffffffffffffffffffffffffffff1661357284610d60565b73ffffffffffffffffffffffffffffffffffffffff16145b91505092915050565b60006135b48473ffffffffffffffffffffffffffffffffffffffff1661385e565b1561370d578373ffffffffffffffffffffffffffffffffffffffff1663150b7a026135dd6122bd565b8786866040518563ffffffff1660e01b81526004016135ff9493929190615b39565b6020604051808303816000875af192505050801561363b57506040513d601f19601f820116820180604052508101906136389190615b9a565b60015b6136bd573d806000811461366b576040519150601f19603f3d011682016040523d82523d6000602084013e613670565b606091505b5060008151036136b5576040517f08c379a00000000000000000000000000000000000000000000000000000000081526004016136ac90615a0e565b60405180910390fd5b805181602001fd5b63150b7a0260e01b7bffffffffffffffffffffffffffffffffffffffffffffffffffffffff1916817bffffffffffffffffffffffffffffffffffffffffffffffffffffffff191614915050613712565b600190505b949350505050565b606060405180602001604052806000815250905090565b606061373c82612272565b600061374661371a565b905060008151116137665760405180602001604052806000815250613791565b8061377084613881565b604051602001613781929190615a2e565b6040516020818303038152906040525b915050919050565b60007f01ffc9a7000000000000000000000000000000000000000000000000000000007bffffffffffffffffffffffffffffffffffffffffffffffffffffffff1916827bffffffffffffffffffffffffffffffffffffffffffffffffffffffff1916149050919050565b61380d838361394f565b61381a6000848484613593565b613859576040517f08c379a000000000000000000000000000000000000000000000000000000000815260040161385090615a0e565b60405180910390fd5b505050565b6000808273ffffffffffffffffffffffffffffffffffffffff163b119050919050565b60606000600161389084613b6c565b01905060008167ffffffffffffffff8111156138af576138ae6142c4565b5b6040519080825280601f01601f1916602001820160405280156138e15781602001600182028036833780820191505090505b509050600082602001820190505b600115613944578080600190039150507f3031323334353637383961626364656600000000000000000000000000000000600a86061a8153600a858161393857613937615bc7565b5b049450600085036138ef575b819350505050919050565b600073ffffffffffffffffffffffffffffffffffffffff168273ffffffffffffffffffffffffffffffffffffffff16036139be576040517f08c379a00000000000000000000000000000000000000000000000000000000081526004016139b590615c42565b60405180910390fd5b6139c7816132a1565b15613a07576040517f08c379a00000000000000000000000000000000000000000000000000000000081526004016139fe90615cae565b60405180910390fd5b613a156000838360016132e2565b613a1e816132a1565b15613a5e576040517f08c379a0000000000000000000000000000000000000000000000000000000008152600401613a5590615cae565b60405180910390fd5b6001600360008473ffffffffffffffffffffffffffffffffffffffff1673ffffffffffffffffffffffffffffffffffffffff16815260200190815260200160002060008282540192505081905550816002600083815260200190815260200160002060006101000a81548173ffffffffffffffffffffffffffffffffffffffff021916908373ffffffffffffffffffffffffffffffffffffffff160217905550808273ffffffffffffffffffffffffffffffffffffffff16600073ffffffffffffffffffffffffffffffffffffffff167fddf252ad1be2c89b69c2b068fc378daa952ba7f163c4a11628f55a4df523b3ef60405160405180910390a4613b686000838360016132e8565b5050565b600080600090507a184f03e93ff9f4daa797ed6e38ed64bf6a1f0100000000000000008310613bca577a184f03e93ff9f4daa797ed6e38ed64bf6a1f0100000000000000008381613bc057613bbf615bc7565b5b0492506040810190505b6d04ee2d6d415b85acef81000000008310613c07576d04ee2d6d415b85acef81000000008381613bfd57613bfc615bc7565b5b0492506020810190505b662386f26fc100008310613c3657662386f26fc100008381613c2c57613c2b615bc7565b5b0492506010810190505b6305f5e1008310613c5f576305f5e1008381613c5557613c54615bc7565b5b0492506008810190505b6127108310613c84576127108381613c7a57613c79615bc7565b5b0492506004810190505b60648310613ca75760648381613c9d57613c9c615bc7565b5b0492506002810190505b600a8310613cb6576001810190505b80915050919050565b60405180608001604052806000815260200160608152602001600015158152602001606081525090565b508054613cf5906149f8565b6000825580601f10613d075750613d26565b601f016020900490600052602060002090810190613d259190613d29565b5b50565b5b80821115613d42576000816000905550600101613d2a565b5090565b6000604051905090565b600080fd5b600080fd5b60007fffffffff0000000000000000000000000000000000000000000000000000000082169050919050565b613d8f81613d5a565b8114613d9a57600080fd5b50565b600081359050613dac81613d86565b92915050565b600060208284031215613dc857613dc7613d50565b5b6000613dd684828501613d9d565b91505092915050565b60008115159050919050565b613df481613ddf565b82525050565b6000602082019050613e0f6000830184613deb565b92915050565b6000819050919050565b613e2881613e15565b8114613e3357600080fd5b50565b600081359050613e4581613e1f565b92915050565b600060208284031215613e6157613e60613d50565b5b6000613e6f84828501613e36565b91505092915050565b7f4e487b7100000000000000000000000000000000000000000000000000000000600052602160045260246000fd5b60048110613eb857613eb7613e78565b5b50565b6000819050613ec982613ea7565b919050565b6000613ed982613ebb565b9050919050565b613ee981613ece565b82525050565b6000602082019050613f046000830184613ee0565b92915050565b600081519050919050565b600082825260208201905092915050565b6000819050602082019050919050565b613f3f81613e15565b82525050565b600081519050919050565b600082825260208201905092915050565b60005b83811015613f7f578082015181840152602081019050613f64565b60008484015250505050565b6000601f19601f8301169050919050565b6000613fa782613f45565b613fb18185613f50565b9350613fc1818560208601613f61565b613fca81613f8b565b840191505092915050565b613fde81613ddf565b82525050565b6000608083016000830151613ffc6000860182613f36565b50602083015184820360208601526140148282613f9c565b91505060408301516140296040860182613fd5565b50606083015184820360608601526140418282613f9c565b9150508091505092915050565b600061405a8383613fe4565b905092915050565b6000602082019050919050565b600061407a82613f0a565b6140848185613f15565b93508360208202850161409685613f26565b8060005b858110156140d257848403895281516140b3858261404e565b94506140be83614062565b925060208a0199505060018101905061409a565b50829750879550505050505092915050565b600060208201905081810360008301526140fe818461406f565b905092915050565b600082825260208201905092915050565b600061412282613f45565b61412c8185614106565b935061413c818560208601613f61565b61414581613f8b565b840191505092915050565b6000602082019050818103600083015261416a8184614117565b905092915050565b600073ffffffffffffffffffffffffffffffffffffffff82169050919050565b600061419d82614172565b9050919050565b6141ad81614192565b81146141b857600080fd5b50565b6000813590506141ca816141a4565b92915050565b6000602082840312156141e6576141e5613d50565b5b60006141f4848285016141bb565b91505092915050565b61420681614192565b82525050565b600060208201905061422160008301846141fd565b92915050565b6000806040838503121561423e5761423d613d50565b5b600061424c858286016141bb565b925050602061425d85828601613e36565b9150509250929050565b6000806000606084860312156142805761427f613d50565b5b600061428e868287016141bb565b935050602061429f868287016141bb565b92505060406142b086828701613e36565b9150509250925092565b600080fd5b600080fd5b7f4e487b7100000000000000000000000000000000000000000000000000000000600052604160045260246000fd5b6142fc82613f8b565b810181811067ffffffffffffffff8211171561431b5761431a6142c4565b5b80604052505050565b600061432e613d46565b905061433a82826142f3565b919050565b600067ffffffffffffffff82111561435a576143596142c4565b5b61436382613f8b565b9050602081019050919050565b82818337600083830152505050565b600061439261438d8461433f565b614324565b9050828152602081018484840111156143ae576143ad6142bf565b5b6143b9848285614370565b509392505050565b600082601f8301126143d6576143d56142ba565b5b81356143e684826020860161437f565b91505092915050565b6000806040838503121561440657614405613d50565b5b6000614414858286016141bb565b925050602083013567ffffffffffffffff81111561443557614434613d55565b5b614441858286016143c1565b9150509250929050565b60006020828403121561446157614460613d50565b5b600082013567ffffffffffffffff81111561447f5761447e613d55565b5b61448b848285016143c1565b91505092915050565b61449d81613e15565b82525050565b60006020820190506144b86000830184614494565b92915050565b6144c781613ddf565b81146144d257600080fd5b50565b6000813590506144e4816144be565b92915050565b60008060008060008060c0878903121561450757614506613d50565b5b600061451589828a016141bb565b965050602061452689828a01613e36565b955050604087013567ffffffffffffffff81111561454757614546613d55565b5b61455389828a016143c1565b945050606087013567ffffffffffffffff81111561457457614573613d55565b5b61458089828a016143c1565b935050608087013567ffffffffffffffff8111156145a1576145a0613d55565b5b6145ad89828a016143c1565b92505060a06145be89828a016144d5565b9150509295509295509295565b6000819050919050565b6145de816145cb565b81146145e957600080fd5b50565b6000813590506145fb816145d5565b92915050565b60006020828403121561461757614616613d50565b5b6000614625848285016145ec565b91505092915050565b6000806040838503121561464557614644613d50565b5b600061465385828601613e36565b925050602083013567ffffffffffffffff81111561467457614673613d55565b5b614680858286016143c1565b9150509250929050565b600080604083850312156146a1576146a0613d50565b5b60006146af858286016141bb565b92505060206146c0858286016144d5565b9150509250929050565b600067ffffffffffffffff82169050919050565b6146e7816146ca565b81146146f257600080fd5b50565b600081359050614704816146de565b92915050565b60008060006060848603121561472357614722613d50565b5b600061473186828701613e36565b9350506020614742868287016141bb565b9250506040614753868287016146f5565b9150509250925092565b600067ffffffffffffffff821115614778576147776142c4565b5b61478182613f8b565b9050602081019050919050565b60006147a161479c8461475d565b614324565b9050828152602081018484840111156147bd576147bc6142bf565b5b6147c8848285614370565b509392505050565b600082601f8301126147e5576147e46142ba565b5b81356147f584826020860161478e565b91505092915050565b6000806000806080858703121561481857614817613d50565b5b6000614826878288016141bb565b9450506020614837878288016141bb565b935050604061484887828801613e36565b925050606085013567ffffffffffffffff81111561486957614868613d55565b5b614875878288016147d0565b91505092959194509250565b61488a816145cb565b82525050565b60006020820190506148a56000830184614881565b92915050565b6148b4816146ca565b82525050565b60006040820190506148cf60008301856141fd565b6148dc60208301846148ab565b9392505050565b600080604083850312156148fa576148f9613d50565b5b6000614908858286016141bb565b9250506020614919858286016141bb565b9150509250929050565b7f4e487b7100000000000000000000000000000000000000000000000000000000600052603260045260246000fd5b7f4e487b7100000000000000000000000000000000000000000000000000000000600052601160045260246000fd5b600061498c82613e15565b91507fffffffffffffffffffffffffffffffffffffffffffffffffffffffffffffffff82036149be576149bd614952565b5b600182019050919050565b7f4e487b7100000000000000000000000000000000000000000000000000000000600052602260045260246000fd5b60006002820490506001821680614a1057607f821691505b602082108103614a2357614a226149c9565b5b50919050565b7f4f6e6c79206f776e65722c206973737565722c206f7220677561726469616e2060008201527f6f66207468652063726564656e7469616c20636f756c6420766965772074686960208201527f7320696e666f726d6174696f6e2e000000000000000000000000000000000000604082015250565b6000614aab604e83614106565b9150614ab682614a29565b606082019050919050565b60006020820190508181036000830152614ada81614a9e565b9050919050565b7f4552433732313a20617070726f76616c20746f2063757272656e74206f776e6560008201527f7200000000000000000000000000000000000000000000000000000000000000602082015250565b6000614b3d602183614106565b9150614b4882614ae1565b604082019050919050565b60006020820190508181036000830152614b6c81614b30565b9050919050565b7f4552433732313a20617070726f76652063616c6c6572206973206e6f7420746f60008201527f6b656e206f776e6572206f7220617070726f76656420666f7220616c6c000000602082015250565b6000614bcf603d83614106565b9150614bda82614b73565b604082019050919050565b60006020820190508181036000830152614bfe81614bc2565b9050919050565b7f4f6e6c792047756172642063616e207472616e7366657220746869732063726560008201527f64656e7469616c2e000000000000000000000000000000000000000000000000602082015250565b6000614c61602883614106565b9150614c6c82614c05565b604082019050919050565b60006020820190508181036000830152614c9081614c54565b9050919050565b6000606082019050614cac60008301866141fd565b614cb960208301856141fd565b614cc66040830184614494565b949350505050565b600081905092915050565b6000614ce482613f45565b614cee8185614cce565b9350614cfe818560208601613f61565b80840191505092915050565b6000614d168284614cd9565b915081905092915050565b7f4552433732313a20696e76616c696420746f6b656e2049440000000000000000600082015250565b6000614d57601883614106565b9150614d6282614d21565b602082019050919050565b60006020820190508181036000830152614d8681614d4a565b9050919050565b7f4552433732313a2061646472657373207a65726f206973206e6f74206120766160008201527f6c6964206f776e65720000000000000000000000000000000000000000000000602082015250565b6000614de9602983614106565b9150614df482614d8d565b604082019050919050565b60006020820190508181036000830152614e1881614ddc565b9050919050565b7f5468697320746f6b656e496420697320616c726561647920757365642e000000600082015250565b6000614e55601d83614106565b9150614e6082614e1f565b602082019050919050565b60006020820190508181036000830152614e8481614e48565b9050919050565b7f546869732063657274696669636174652075696420697320616c72656164792060008201527f757365642e000000000000000000000000000000000000000000000000000000602082015250565b6000614ee7602583614106565b9150614ef282614e8b565b604082019050919050565b60006020820190508181036000830152614f1681614eda565b9050919050565b60008190508160005260206000209050919050565b60006020601f8301049050919050565b600082821b905092915050565b600060088302614f7f7fffffffffffffffffffffffffffffffffffffffffffffffffffffffffffffffff82614f42565b614f898683614f42565b95508019841693508086168417925050509392505050565b6000819050919050565b6000614fc6614fc1614fbc84613e15565b614fa1565b613e15565b9050919050565b6000819050919050565b614fe083614fab565b614ff4614fec82614fcd565b848454614f4f565b825550505050565b600090565b615009614ffc565b615014818484614fd7565b505050565b5b818110156150385761502d600082615001565b60018101905061501a565b5050565b601f82111561507d5761504e81614f1d565b61505784614f32565b81016020851015615066578190505b61507a61507285614f32565b830182615019565b50505b505050565b600082821c905092915050565b60006150a060001984600802615082565b1980831691505092915050565b60006150b9838361508f565b9150826002028217905092915050565b6150d282613f45565b67ffffffffffffffff8111156150eb576150ea6142c4565b5b6150f582546149f8565b61510082828561503c565b600060209050601f8311600181146151335760008415615121578287015190505b61512b85826150ad565b865550615193565b601f19841661514186614f1d565b60005b8281101561516957848901518255600182019150602085019450602081019050615144565b868310156151865784890151615182601f89168261508f565b8355505b6001600288020188555050505b505050505050565b600060ff82169050919050565b60006151b38261519b565b915060ff82036151c6576151c5614952565b5b600182019050919050565b7f596f7520617265206e6f7420616c6c6f77656420746f207265766f6b6520746860008201527f69732063726564656e7469616c2e000000000000000000000000000000000000602082015250565b600061522d602e83614106565b9150615238826151d1565b604082019050919050565b6000602082019050818103600083015261525c81615220565b9050919050565b7f4f6e6c79204952432063616e2062652061737369676e6564206120677561726460008201527f2e00000000000000000000000000000000000000000000000000000000000000602082015250565b60006152bf602183614106565b91506152ca82615263565b604082019050919050565b600060208201905081810360008301526152ee816152b2565b9050919050565b7f455243363134373a20696e76616c696420657870697265730000000000000000600082015250565b600061532b601883614106565b9150615336826152f5565b602082019050919050565b6000602082019050818103600083015261535a8161531e565b9050919050565b7f455243363134373a2073656e646572206973206e6f74206775617264206f662060008201527f74686520746f6b656e0000000000000000000000000000000000000000000000602082015250565b60006153bd602983614106565b91506153c882615361565b604082019050919050565b600060208201905081810360008301526153ec816153b0565b9050919050565b7f4552433732313a207472616e736665722066726f6d20696e636f72726563742060008201527f6f776e6572000000000000000000000000000000000000000000000000000000602082015250565b600061544f602583614106565b915061545a826153f3565b604082019050919050565b6000602082019050818103600083015261547e81615442565b9050919050565b7f4552433732313a207472616e7366657220746f20746865207a65726f2061646460008201527f7265737300000000000000000000000000000000000000000000000000000000602082015250565b60006154e1602483614106565b91506154ec82615485565b604082019050919050565b60006020820190508181036000830152615510816154d4565b9050919050565b6000615522826146ca565b915061552d836146ca565b9250828201905067ffffffffffffffff81111561554d5761554c614952565b5b92915050565b6000819050919050565b600061557861557361556e84615553565b614fa1565b6146ca565b9050919050565b6155888161555d565b82525050565b60006040820190506155a360008301856141fd565b6155b0602083018461557f565b9392505050565b7f4552433732313a20617070726f766520746f2063616c6c657200000000000000600082015250565b60006155ed601983614106565b91506155f8826155b7565b602082019050919050565b6000602082019050818103600083015261561c816155e0565b9050919050565b7f455243363134373a206e65772067756172642063616e206e6f74206265206e7560008201527f6c6c000000000000000000000000000000000000000000000000000000000000602082015250565b600061567f602283614106565b915061568a82615623565b604082019050919050565b600060208201905081810360008301526156ae81615672565b9050919050565b7f455243363134373a206f6e6c792067756172642063616e206368616e6765206960008201527f742073656c662e20496e2063617365207468697320636f6e747261637420776160208201527f73206465706c6f79656420776974682027467265656c792041737369676e204760408201527f7561726469616e2720666f7262696464656e2c20746865204775617264206f6660608201527f20796f7572204952432069732074686520636f72726573706f6e64696e67204960808201527f73737565722062792064656661756c7420616e64206e6f626f647920636f756c60a08201527f64206368616e6765207468617420677561726420756e6c65737320746865204960c08201527f7373756572207468656d73656c662e000000000000000000000000000000000060e082015250565b60006157f560ef83614106565b9150615800826156b5565b61010082019050919050565b60006020820190508181036000830152615825816157e8565b9050919050565b7f455243363134373a2063616c6c6572206973206e6f74206f776e6572206e6f7260008201527f20617070726f7665640000000000000000000000000000000000000000000000602082015250565b6000615888602983614106565b91506158938261582c565b604082019050919050565b600060208201905081810360008301526158b78161587b565b9050919050565b7f467265656c792041737369676e20477561726469616e20666f7262696464656e60008201527f20666f72207468697320636f6e7472616374206465706c6f796d656e742e204f60208201527f6e6c7920746865204973737565722063616e206265206120477561726469616e60408201527f2e00000000000000000000000000000000000000000000000000000000000000606082015250565b6000615966606183614106565b9150615971826158be565b608082019050919050565b6000602082019050818103600083015261599581615959565b9050919050565b7f4552433732313a207472616e7366657220746f206e6f6e20455243373231526560008201527f63656976657220696d706c656d656e7465720000000000000000000000000000602082015250565b60006159f8603283614106565b9150615a038261599c565b604082019050919050565b60006020820190508181036000830152615a27816159eb565b9050919050565b6000615a3a8285614cd9565b9150615a468284614cd9565b91508190509392505050565b7f45524337323155524953746f726167653a2055524920736574206f66206e6f6e60008201527f6578697374656e7420746f6b656e000000000000000000000000000000000000602082015250565b6000615aae602e83614106565b9150615ab982615a52565b604082019050919050565b60006020820190508181036000830152615add81615aa1565b9050919050565b600081519050919050565b600082825260208201905092915050565b6000615b0b82615ae4565b615b158185615aef565b9350615b25818560208601613f61565b615b2e81613f8b565b840191505092915050565b6000608082019050615b4e60008301876141fd565b615b5b60208301866141fd565b615b686040830185614494565b8181036060830152615b7a8184615b00565b905095945050505050565b600081519050615b9481613d86565b92915050565b600060208284031215615bb057615baf613d50565b5b6000615bbe84828501615b85565b91505092915050565b7f4e487b7100000000000000000000000000000000000000000000000000000000600052601260045260246000fd5b7f4552433732313a206d696e7420746f20746865207a65726f2061646472657373600082015250565b6000615c2c602083614106565b9150615c3782615bf6565b602082019050919050565b60006020820190508181036000830152615c5b81615c1f565b9050919050565b7f4552433732313a20746f6b656e20616c7265616479206d696e74656400000000600082015250565b6000615c98601c83614106565b9150615ca382615c62565b602082019050919050565b60006020820190508181036000830152615cc781615c8b565b905091905056fea2646970667358221220c85daa3a9d914edb1138896a4b0c40009518f1969e582a816d5bf089054159ce64736f6c63430008110033",
  "linkReferences": {},
  "deployedLinkReferences": {}
}