{
  "_format": "hh-sol-artifact-1",
  "contractName": "ERC6551Account",
  "sourceName": "contracts/ERC6551Account.sol",
  "abi": [
    {
      "inputs": [
        {
          "internalType": "uint256",
          "name": "_size",
          "type": "uint256"
        },
        {
          "internalType": "uint256",
          "name": "_start",
          "type": "uint256"
        },
        {
          "internalType": "uint256",
          "name": "_end",
          "type": "uint256"
        }
      ],
      "name": "InvalidCodeAtRange",
      "type": "error"
    },
    {
      "inputs": [],
      "name": "NotAuthorized",
      "type": "error"
    },
    {
      "anonymous": false,
      "inputs": [
        {
          "indexed": false,
          "internalType": "address",
          "name": "owner",
          "type": "address"
        },
        {
          "indexed": false,
          "internalType": "address",
          "name": "executor",
          "type": "address"
        }
      ],
      "name": "ExecutorUpdated",
      "type": "event"
    },
    {
      "inputs": [
        {
          "internalType": "address",
          "name": "to",
          "type": "address"
        },
        {
          "internalType": "uint256",
          "name": "value",
          "type": "uint256"
        },
        {
          "internalType": "bytes",
          "name": "data",
          "type": "bytes"
        }
      ],
      "name": "executeCall",
      "outputs": [
        {
          "internalType": "bytes",
          "name": "result",
          "type": "bytes"
        }
      ],
      "stateMutability": "payable",
      "type": "function"
    },
    {
      "inputs": [
        {
          "internalType": "address",
          "name": "to",
          "type": "address"
        },
        {
          "internalType": "uint256",
          "name": "value",
          "type": "uint256"
        },
        {
          "internalType": "bytes",
          "name": "data",
          "type": "bytes"
        }
      ],
      "name": "executeTrustedCall",
      "outputs": [
        {
          "internalType": "bytes",
          "name": "result",
          "type": "bytes"
        }
      ],
      "stateMutability": "payable",
      "type": "function"
    },
    {
      "inputs": [
        {
          "internalType": "address",
          "name": "",
          "type": "address"
        }
      ],
      "name": "executor",
      "outputs": [
        {
          "internalType": "address",
          "name": "",
          "type": "address"
        }
      ],
      "stateMutability": "view",
      "type": "function"
    },
    {
      "inputs": [
        {
          "internalType": "bytes32",
          "name": "hash",
          "type": "bytes32"
        },
        {
          "internalType": "bytes",
          "name": "signature",
          "type": "bytes"
        }
      ],
      "name": "isValidSignature",
      "outputs": [
        {
          "internalType": "bytes4",
          "name": "magicValue",
          "type": "bytes4"
        }
      ],
      "stateMutability": "view",
      "type": "function"
    },
    {
      "inputs": [],
      "name": "nonce",
      "outputs": [
        {
          "internalType": "uint256",
          "name": "",
          "type": "uint256"
        }
      ],
      "stateMutability": "view",
      "type": "function"
    },
    {
      "inputs": [
        {
          "internalType": "address",
          "name": "",
          "type": "address"
        },
        {
          "internalType": "address",
          "name": "",
          "type": "address"
        },
        {
          "internalType": "uint256[]",
          "name": "",
          "type": "uint256[]"
        },
        {
          "internalType": "uint256[]",
          "name": "",
          "type": "uint256[]"
        },
        {
          "internalType": "bytes",
          "name": "",
          "type": "bytes"
        }
      ],
      "name": "onERC1155BatchReceived",
      "outputs": [
        {
          "internalType": "bytes4",
          "name": "",
          "type": "bytes4"
        }
      ],
      "stateMutability": "nonpayable",
      "type": "function"
    },
    {
      "inputs": [
        {
          "internalType": "address",
          "name": "",
          "type": "address"
        },
        {
          "internalType": "address",
          "name": "",
          "type": "address"
        },
        {
          "internalType": "uint256",
          "name": "",
          "type": "uint256"
        },
        {
          "internalType": "uint256",
          "name": "",
          "type": "uint256"
        },
        {
          "internalType": "bytes",
          "name": "",
          "type": "bytes"
        }
      ],
      "name": "onERC1155Received",
      "outputs": [
        {
          "internalType": "bytes4",
          "name": "",
          "type": "bytes4"
        }
      ],
      "stateMutability": "nonpayable",
      "type": "function"
    },
    {
      "inputs": [
        {
          "internalType": "address",
          "name": "",
          "type": "address"
        },
        {
          "internalType": "address",
          "name": "",
          "type": "address"
        },
        {
          "internalType": "uint256",
          "name": "",
          "type": "uint256"
        },
        {
          "internalType": "bytes",
          "name": "",
          "type": "bytes"
        }
      ],
      "name": "onERC721Received",
      "outputs": [
        {
          "internalType": "bytes4",
          "name": "",
          "type": "bytes4"
        }
      ],
      "stateMutability": "nonpayable",
      "type": "function"
    },
    {
      "inputs": [],
      "name": "owner",
      "outputs": [
        {
          "internalType": "address",
          "name": "",
          "type": "address"
        }
      ],
      "stateMutability": "view",
      "type": "function"
    },
    {
      "inputs": [
        {
          "internalType": "address",
          "name": "_executionModule",
          "type": "address"
        }
      ],
      "name": "setExecutor",
      "outputs": [],
      "stateMutability": "nonpayable",
      "type": "function"
    },
    {
      "inputs": [
        {
          "internalType": "bytes4",
          "name": "interfaceId",
          "type": "bytes4"
        }
      ],
      "name": "supportsInterface",
      "outputs": [
        {
          "internalType": "bool",
          "name": "",
          "type": "bool"
        }
      ],
      "stateMutability": "view",
      "type": "function"
    },
    {
      "inputs": [],
      "name": "token",
      "outputs": [
        {
          "internalType": "address",
          "name": "tokenCollection",
          "type": "address"
        },
        {
          "internalType": "uint256",
          "name": "tokenId",
          "type": "uint256"
        }
      ],
      "stateMutability": "view",
      "type": "function"
    },
    {
      "stateMutability": "payable",
      "type": "receive"
    }
  ],
  "bytecode": "0x608060405234801561001057600080fd5b50611bd7806100206000396000f3fe6080604052600436106100ab5760003560e01c80638da5cb5b116100645780638da5cb5b146102045780639e5d4c491461022f578063affed0e01461025f578063bc197c811461028a578063f23a6e61146102c7578063fc0c546a14610304576100b2565b806301ffc9a7146100b7578063150b7a02146100f45780631626ba7e146101315780631c3c0ea81461016e57806348c7e528146101975780637cdc0252146101d4576100b2565b366100b257005b600080fd5b3480156100c357600080fd5b506100de60048036038101906100d99190611023565b610330565b6040516100eb919061106b565b60405180910390f35b34801561010057600080fd5b5061011b60048036038101906101169190611260565b6105c9565b60405161012891906112f2565b60405180910390f35b34801561013d57600080fd5b5061015860048036038101906101539190611343565b6105dd565b60405161016591906112f2565b60405180910390f35b34801561017a57600080fd5b506101956004803603810190610190919061139f565b6106d6565b005b3480156101a357600080fd5b506101be60048036038101906101b9919061139f565b610802565b6040516101cb91906113db565b60405180910390f35b6101ee60048036038101906101e99190611456565b610835565b6040516101fb9190611549565b60405180910390f35b34801561021057600080fd5b5061021961091e565b60405161022691906113db565b60405180910390f35b61024960048036038101906102449190611456565b6109c8565b6040516102569190611549565b60405180910390f35b34801561026b57600080fd5b50610274610a52565b604051610281919061157a565b60405180910390f35b34801561029657600080fd5b506102b160048036038101906102ac9190611658565b610a5b565b6040516102be91906112f2565b60405180910390f35b3480156102d357600080fd5b506102ee60048036038101906102e99190611727565b610a70565b6040516102fb91906112f2565b60405180910390f35b34801561031057600080fd5b50610319610a85565b6040516103279291906117be565b60405180910390f35b60007feff4d378000000000000000000000000000000000000000000000000000000007bffffffffffffffffffffffffffffffffffffffffffffffffffffffff1916827bffffffffffffffffffffffffffffffffffffffffffffffffffffffff191614806103fb57507f4e2312e0000000000000000000000000000000000000000000000000000000007bffffffffffffffffffffffffffffffffffffffffffffffffffffffff1916827bffffffffffffffffffffffffffffffffffffffffffffffffffffffff1916145b8061046357507f01ffc9a7000000000000000000000000000000000000000000000000000000007bffffffffffffffffffffffffffffffffffffffffffffffffffffffff1916827bffffffffffffffffffffffffffffffffffffffffffffffffffffffff1916145b1561047157600190506105c4565b60006001600061047f61091e565b73ffffffffffffffffffffffffffffffffffffffff1673ffffffffffffffffffffffffffffffffffffffff16815260200190815260200160002060009054906101000a900473ffffffffffffffffffffffffffffffffffffffff169050600073ffffffffffffffffffffffffffffffffffffffff168173ffffffffffffffffffffffffffffffffffffffff16148061052e575060008173ffffffffffffffffffffffffffffffffffffffff163b145b1561053d5760009150506105c4565b8073ffffffffffffffffffffffffffffffffffffffff166301ffc9a7846040518263ffffffff1660e01b815260040161057691906112f2565b602060405180830381865afa9250505080156105b057506040513d601f19601f820116820180604052508101906105ad9190611813565b60015b6105be5760009150506105c4565b80925050505b919050565b600063150b7a0260e01b9050949350505050565b6000806105e861091e565b90506000600160008373ffffffffffffffffffffffffffffffffffffffff1673ffffffffffffffffffffffffffffffffffffffff16815260200190815260200160002060009054906101000a900473ffffffffffffffffffffffffffffffffffffffff169050600073ffffffffffffffffffffffffffffffffffffffff168173ffffffffffffffffffffffffffffffffffffffff16141580156106925750610691818686610a9f565b5b156106a857631626ba7e60e01b925050506106d0565b6106b3828686610a9f565b156106c957631626ba7e60e01b925050506106d0565b6000925050505b92915050565b60006106e061091e565b90503373ffffffffffffffffffffffffffffffffffffffff168173ffffffffffffffffffffffffffffffffffffffff1614610747576040517fea8e4eb500000000000000000000000000000000000000000000000000000000815260040160405180910390fd5b81600160008373ffffffffffffffffffffffffffffffffffffffff1673ffffffffffffffffffffffffffffffffffffffff16815260200190815260200160002060006101000a81548173ffffffffffffffffffffffffffffffffffffffff021916908373ffffffffffffffffffffffffffffffffffffffff1602179055507f0ef3c7eb9dbcf33ddf032f4cce366a07eda85eed03e3172e4a90c4cc16d5788681836040516107f6929190611840565b60405180910390a15050565b60016020528060005260406000206000915054906101000a900473ffffffffffffffffffffffffffffffffffffffff1681565b606060006001600061084561091e565b73ffffffffffffffffffffffffffffffffffffffff1673ffffffffffffffffffffffffffffffffffffffff16815260200190815260200160002060009054906101000a900473ffffffffffffffffffffffffffffffffffffffff1690508073ffffffffffffffffffffffffffffffffffffffff163373ffffffffffffffffffffffffffffffffffffffff1614610907576040517fea8e4eb500000000000000000000000000000000000000000000000000000000815260040160405180910390fd5b61091386868686610b2e565b915050949350505050565b60008060008061092c610bd2565b92509250925046831461094557600093505050506109c5565b8173ffffffffffffffffffffffffffffffffffffffff16636352211e826040518263ffffffff1660e01b815260040161097e919061157a565b602060405180830381865afa15801561099b573d6000803e3d6000fd5b505050506040513d601f19601f820116820180604052508101906109bf919061187e565b93505050505b90565b606060006109d461091e565b90508073ffffffffffffffffffffffffffffffffffffffff163373ffffffffffffffffffffffffffffffffffffffff1614610a3b576040517fea8e4eb500000000000000000000000000000000000000000000000000000000815260040160405180910390fd5b610a4786868686610b2e565b915050949350505050565b60008054905090565b600063bc197c8160e01b905095945050505050565b600063f23a6e6160e01b905095945050505050565b600080610a90610bd2565b90915080925081935050509091565b6000806000610aae8585610c1e565b9150915060006004811115610ac657610ac56118ab565b5b816004811115610ad957610ad86118ab565b5b148015610b1157508573ffffffffffffffffffffffffffffffffffffffff168273ffffffffffffffffffffffffffffffffffffffff16145b80610b235750610b22868686610c6f565b5b925050509392505050565b606060008573ffffffffffffffffffffffffffffffffffffffff16858585604051610b5a92919061190a565b60006040518083038185875af1925050503d8060008114610b97576040519150601f19603f3d011682016040523d82523d6000602084013e610b9c565b606091505b50809350819250505080610bb257815160208301fd5b600080815480929190610bc490611952565b919050555050949350505050565b600080600080610be130610db3565b90506000815103610bfd57600080600093509350935050610c19565b80806020019051810190610c1191906119ed565b935093509350505b909192565b6000806041835103610c5f5760008060006020860151925060408601519150606086015160001a9050610c5387828585610de5565b94509450505050610c68565b60006002915091505b9250929050565b60008060008573ffffffffffffffffffffffffffffffffffffffff16631626ba7e60e01b8686604051602401610ca6929190611a4f565b604051602081830303815290604052907bffffffffffffffffffffffffffffffffffffffffffffffffffffffff19166020820180517bffffffffffffffffffffffffffffffffffffffffffffffffffffffff8381831617835250505050604051610d109190611ab0565b600060405180830381855afa9150503d8060008114610d4b576040519150601f19603f3d011682016040523d82523d6000602084013e610d50565b606091505b5091509150818015610d6457506020815110155b8015610da85750631626ba7e60e01b7bffffffffffffffffffffffffffffffffffffffffffffffffffffffff191681806020019051810190610da69190611adc565b145b925050509392505050565b606060008273ffffffffffffffffffffffffffffffffffffffff163b9050610ddd83602e83610ec7565b915050919050565b6000807f7fffffffffffffffffffffffffffffff5d576e7357a4501ddfe92f46681b20a08360001c1115610e20576000600391509150610ebe565b600060018787878760405160008152602001604052604051610e459493929190611b25565b6020604051602081039080840390855afa158015610e67573d6000803e3d6000fd5b505050602060405103519050600073ffffffffffffffffffffffffffffffffffffffff168173ffffffffffffffffffffffffffffffffffffffff1603610eb557600060019250925050610ebe565b80600092509250505b94509492505050565b60606000610ed485610fac565b905060008103610ef65760405180602001604052806000815250915050610fa5565b80841115610f165760405180602001604052806000815250915050610fa5565b83831015610f5f578084846040517f2c4a89fa000000000000000000000000000000000000000000000000000000008152600401610f5693929190611b6a565b60405180910390fd5b60008484039050600085830390506000828210610f7c5782610f7e565b815b90506040519450601f19601f60208301011685016040528085528087602087018a3c505050505b9392505050565b6000813b9050919050565b6000604051905090565b600080fd5b600080fd5b60007fffffffff0000000000000000000000000000000000000000000000000000000082169050919050565b61100081610fcb565b811461100b57600080fd5b50565b60008135905061101d81610ff7565b92915050565b60006020828403121561103957611038610fc1565b5b60006110478482850161100e565b91505092915050565b60008115159050919050565b61106581611050565b82525050565b6000602082019050611080600083018461105c565b92915050565b600073ffffffffffffffffffffffffffffffffffffffff82169050919050565b60006110b182611086565b9050919050565b6110c1816110a6565b81146110cc57600080fd5b50565b6000813590506110de816110b8565b92915050565b6000819050919050565b6110f7816110e4565b811461110257600080fd5b50565b600081359050611114816110ee565b92915050565b600080fd5b600080fd5b6000601f19601f8301169050919050565b7f4e487b7100000000000000000000000000000000000000000000000000000000600052604160045260246000fd5b61116d82611124565b810181811067ffffffffffffffff8211171561118c5761118b611135565b5b80604052505050565b600061119f610fb7565b90506111ab8282611164565b919050565b600067ffffffffffffffff8211156111cb576111ca611135565b5b6111d482611124565b9050602081019050919050565b82818337600083830152505050565b60006112036111fe846111b0565b611195565b90508281526020810184848401111561121f5761121e61111f565b5b61122a8482856111e1565b509392505050565b600082601f8301126112475761124661111a565b5b81356112578482602086016111f0565b91505092915050565b6000806000806080858703121561127a57611279610fc1565b5b6000611288878288016110cf565b9450506020611299878288016110cf565b93505060406112aa87828801611105565b925050606085013567ffffffffffffffff8111156112cb576112ca610fc6565b5b6112d787828801611232565b91505092959194509250565b6112ec81610fcb565b82525050565b600060208201905061130760008301846112e3565b92915050565b6000819050919050565b6113208161130d565b811461132b57600080fd5b50565b60008135905061133d81611317565b92915050565b6000806040838503121561135a57611359610fc1565b5b60006113688582860161132e565b925050602083013567ffffffffffffffff81111561138957611388610fc6565b5b61139585828601611232565b9150509250929050565b6000602082840312156113b5576113b4610fc1565b5b60006113c3848285016110cf565b91505092915050565b6113d5816110a6565b82525050565b60006020820190506113f060008301846113cc565b92915050565b600080fd5b600080fd5b60008083601f8401126114165761141561111a565b5b8235905067ffffffffffffffff811115611433576114326113f6565b5b60208301915083600182028301111561144f5761144e6113fb565b5b9250929050565b600080600080606085870312156114705761146f610fc1565b5b600061147e878288016110cf565b945050602061148f87828801611105565b935050604085013567ffffffffffffffff8111156114b0576114af610fc6565b5b6114bc87828801611400565b925092505092959194509250565b600081519050919050565b600082825260208201905092915050565b60005b838110156115045780820151818401526020810190506114e9565b60008484015250505050565b600061151b826114ca565b61152581856114d5565b93506115358185602086016114e6565b61153e81611124565b840191505092915050565b600060208201905081810360008301526115638184611510565b905092915050565b611574816110e4565b82525050565b600060208201905061158f600083018461156b565b92915050565b600067ffffffffffffffff8211156115b0576115af611135565b5b602082029050602081019050919050565b60006115d46115cf84611595565b611195565b905080838252602082019050602084028301858111156115f7576115f66113fb565b5b835b81811015611620578061160c8882611105565b8452602084019350506020810190506115f9565b5050509392505050565b600082601f83011261163f5761163e61111a565b5b813561164f8482602086016115c1565b91505092915050565b600080600080600060a0868803121561167457611673610fc1565b5b6000611682888289016110cf565b9550506020611693888289016110cf565b945050604086013567ffffffffffffffff8111156116b4576116b3610fc6565b5b6116c08882890161162a565b935050606086013567ffffffffffffffff8111156116e1576116e0610fc6565b5b6116ed8882890161162a565b925050608086013567ffffffffffffffff81111561170e5761170d610fc6565b5b61171a88828901611232565b9150509295509295909350565b600080600080600060a0868803121561174357611742610fc1565b5b6000611751888289016110cf565b9550506020611762888289016110cf565b945050604061177388828901611105565b935050606061178488828901611105565b925050608086013567ffffffffffffffff8111156117a5576117a4610fc6565b5b6117b188828901611232565b9150509295509295909350565b60006040820190506117d360008301856113cc565b6117e0602083018461156b565b9392505050565b6117f081611050565b81146117fb57600080fd5b50565b60008151905061180d816117e7565b92915050565b60006020828403121561182957611828610fc1565b5b6000611837848285016117fe565b91505092915050565b600060408201905061185560008301856113cc565b61186260208301846113cc565b9392505050565b600081519050611878816110b8565b92915050565b60006020828403121561189457611893610fc1565b5b60006118a284828501611869565b91505092915050565b7f4e487b7100000000000000000000000000000000000000000000000000000000600052602160045260246000fd5b600081905092915050565b60006118f183856118da565b93506118fe8385846111e1565b82840190509392505050565b60006119178284866118e5565b91508190509392505050565b7f4e487b7100000000000000000000000000000000000000000000000000000000600052601160045260246000fd5b600061195d826110e4565b91507fffffffffffffffffffffffffffffffffffffffffffffffffffffffffffffffff820361198f5761198e611923565b5b600182019050919050565b6000815190506119a9816110ee565b92915050565b60006119ba82611086565b9050919050565b6119ca816119af565b81146119d557600080fd5b50565b6000815190506119e7816119c1565b92915050565b600080600060608486031215611a0657611a05610fc1565b5b6000611a148682870161199a565b9350506020611a25868287016119d8565b9250506040611a368682870161199a565b9150509250925092565b611a498161130d565b82525050565b6000604082019050611a646000830185611a40565b8181036020830152611a768184611510565b90509392505050565b6000611a8a826114ca565b611a9481856118da565b9350611aa48185602086016114e6565b80840191505092915050565b6000611abc8284611a7f565b915081905092915050565b600081519050611ad681611317565b92915050565b600060208284031215611af257611af1610fc1565b5b6000611b0084828501611ac7565b91505092915050565b600060ff82169050919050565b611b1f81611b09565b82525050565b6000608082019050611b3a6000830187611a40565b611b476020830186611b16565b611b546040830185611a40565b611b616060830184611a40565b95945050505050565b6000606082019050611b7f600083018661156b565b611b8c602083018561156b565b611b99604083018461156b565b94935050505056fea2646970667358221220b39e9309995628ed3a3b1dc62902fcda6ca1123d6c5442a5e11cd44c6d98793564736f6c63430008110033",
  "linkReferences": {},
  "deployedLinkReferences": {}
}