{
  "_format": "hh-sol-artifact-1",
  "contractName": "VerifiableProof",
  "sourceName": "contracts/VerifiableProof.sol",
  "abi": [
    {
      "inputs": [],
      "stateMutability": "nonpayable",
      "type": "constructor"
    },
    {
      "anonymous": false,
      "inputs": [
        {
          "indexed": true,
          "internalType": "address",
          "name": "owner",
          "type": "address"
        },
        {
          "indexed": true,
          "internalType": "address",
          "name": "approved",
          "type": "address"
        },
        {
          "indexed": true,
          "internalType": "uint256",
          "name": "tokenId",
          "type": "uint256"
        }
      ],
      "name": "Approval",
      "type": "event"
    },
    {
      "anonymous": false,
      "inputs": [
        {
          "indexed": true,
          "internalType": "address",
          "name": "owner",
          "type": "address"
        },
        {
          "indexed": true,
          "internalType": "address",
          "name": "operator",
          "type": "address"
        },
        {
          "indexed": false,
          "internalType": "bool",
          "name": "approved",
          "type": "bool"
        }
      ],
      "name": "ApprovalForAll",
      "type": "event"
    },
    {
      "anonymous": false,
      "inputs": [
        {
          "indexed": false,
          "internalType": "uint256",
          "name": "_fromTokenId",
          "type": "uint256"
        },
        {
          "indexed": false,
          "internalType": "uint256",
          "name": "_toTokenId",
          "type": "uint256"
        }
      ],
      "name": "BatchMetadataUpdate",
      "type": "event"
    },
    {
      "anonymous": false,
      "inputs": [
        {
          "indexed": true,
          "internalType": "uint256",
          "name": "tokenId",
          "type": "uint256"
        }
      ],
      "name": "DeletedProof",
      "type": "event"
    },
    {
      "anonymous": false,
      "inputs": [
        {
          "indexed": false,
          "internalType": "uint256",
          "name": "_tokenId",
          "type": "uint256"
        }
      ],
      "name": "MetadataUpdate",
      "type": "event"
    },
    {
      "anonymous": false,
      "inputs": [
        {
          "indexed": false,
          "internalType": "address",
          "name": "owner",
          "type": "address"
        },
        {
          "indexed": false,
          "internalType": "address",
          "name": "verifier",
          "type": "address"
        },
        {
          "indexed": false,
          "internalType": "uint256",
          "name": "tokenId",
          "type": "uint256"
        }
      ],
      "name": "ProofMinted",
      "type": "event"
    },
    {
      "anonymous": false,
      "inputs": [
        {
          "indexed": true,
          "internalType": "address",
          "name": "from",
          "type": "address"
        },
        {
          "indexed": true,
          "internalType": "address",
          "name": "to",
          "type": "address"
        },
        {
          "indexed": true,
          "internalType": "uint256",
          "name": "tokenId",
          "type": "uint256"
        }
      ],
      "name": "Transfer",
      "type": "event"
    },
    {
      "inputs": [
        {
          "internalType": "address",
          "name": "to",
          "type": "address"
        },
        {
          "internalType": "uint256",
          "name": "tokenId",
          "type": "uint256"
        }
      ],
      "name": "approve",
      "outputs": [],
      "stateMutability": "nonpayable",
      "type": "function"
    },
    {
      "inputs": [
        {
          "internalType": "address",
          "name": "owner",
          "type": "address"
        }
      ],
      "name": "balanceOf",
      "outputs": [
        {
          "internalType": "uint256",
          "name": "",
          "type": "uint256"
        }
      ],
      "stateMutability": "view",
      "type": "function"
    },
    {
      "inputs": [
        {
          "internalType": "uint256",
          "name": "tokenId",
          "type": "uint256"
        }
      ],
      "name": "deleteProof",
      "outputs": [],
      "stateMutability": "nonpayable",
      "type": "function"
    },
    {
      "inputs": [
        {
          "internalType": "uint256",
          "name": "tokenId",
          "type": "uint256"
        }
      ],
      "name": "getApproved",
      "outputs": [
        {
          "internalType": "address",
          "name": "",
          "type": "address"
        }
      ],
      "stateMutability": "view",
      "type": "function"
    },
    {
      "inputs": [
        {
          "internalType": "address",
          "name": "owner",
          "type": "address"
        },
        {
          "internalType": "address",
          "name": "operator",
          "type": "address"
        }
      ],
      "name": "isApprovedForAll",
      "outputs": [
        {
          "internalType": "bool",
          "name": "",
          "type": "bool"
        }
      ],
      "stateMutability": "view",
      "type": "function"
    },
    {
      "inputs": [],
      "name": "listProof",
      "outputs": [
        {
          "components": [
            {
              "internalType": "uint256",
              "name": "tokenId",
              "type": "uint256"
            },
            {
              "internalType": "address",
              "name": "verifier",
              "type": "address"
            },
            {
              "internalType": "string",
              "name": "uri",
              "type": "string"
            }
          ],
          "internalType": "struct VerifiableProof.ProofInfo[]",
          "name": "",
          "type": "tuple[]"
        }
      ],
      "stateMutability": "view",
      "type": "function"
    },
    {
      "inputs": [],
      "name": "name",
      "outputs": [
        {
          "internalType": "string",
          "name": "",
          "type": "string"
        }
      ],
      "stateMutability": "view",
      "type": "function"
    },
    {
      "inputs": [
        {
          "internalType": "uint256",
          "name": "tokenId",
          "type": "uint256"
        }
      ],
      "name": "ownerOf",
      "outputs": [
        {
          "internalType": "address",
          "name": "",
          "type": "address"
        }
      ],
      "stateMutability": "view",
      "type": "function"
    },
    {
      "inputs": [
        {
          "internalType": "address",
          "name": "to",
          "type": "address"
        },
        {
          "internalType": "string",
          "name": "uri",
          "type": "string"
        },
        {
          "internalType": "address",
          "name": "verifier",
          "type": "address"
        }
      ],
      "name": "safeMint",
      "outputs": [],
      "stateMutability": "nonpayable",
      "type": "function"
    },
    {
      "inputs": [
        {
          "internalType": "address",
          "name": "from",
          "type": "address"
        },
        {
          "internalType": "address",
          "name": "to",
          "type": "address"
        },
        {
          "internalType": "uint256",
          "name": "tokenId",
          "type": "uint256"
        }
      ],
      "name": "safeTransferFrom",
      "outputs": [],
      "stateMutability": "nonpayable",
      "type": "function"
    },
    {
      "inputs": [
        {
          "internalType": "address",
          "name": "from",
          "type": "address"
        },
        {
          "internalType": "address",
          "name": "to",
          "type": "address"
        },
        {
          "internalType": "uint256",
          "name": "tokenId",
          "type": "uint256"
        },
        {
          "internalType": "bytes",
          "name": "data",
          "type": "bytes"
        }
      ],
      "name": "safeTransferFrom",
      "outputs": [],
      "stateMutability": "nonpayable",
      "type": "function"
    },
    {
      "inputs": [
        {
          "internalType": "address",
          "name": "operator",
          "type": "address"
        },
        {
          "internalType": "bool",
          "name": "approved",
          "type": "bool"
        }
      ],
      "name": "setApprovalForAll",
      "outputs": [],
      "stateMutability": "nonpayable",
      "type": "function"
    },
    {
      "inputs": [
        {
          "internalType": "bytes4",
          "name": "interfaceId",
          "type": "bytes4"
        }
      ],
      "name": "supportsInterface",
      "outputs": [
        {
          "internalType": "bool",
          "name": "",
          "type": "bool"
        }
      ],
      "stateMutability": "view",
      "type": "function"
    },
    {
      "inputs": [],
      "name": "symbol",
      "outputs": [
        {
          "internalType": "string",
          "name": "",
          "type": "string"
        }
      ],
      "stateMutability": "view",
      "type": "function"
    },
    {
      "inputs": [],
      "name": "tokenCounter",
      "outputs": [
        {
          "internalType": "uint256",
          "name": "",
          "type": "uint256"
        }
      ],
      "stateMutability": "view",
      "type": "function"
    },
    {
      "inputs": [
        {
          "internalType": "uint256",
          "name": "tokenId",
          "type": "uint256"
        }
      ],
      "name": "tokenURI",
      "outputs": [
        {
          "internalType": "string",
          "name": "",
          "type": "string"
        }
      ],
      "stateMutability": "view",
      "type": "function"
    },
    {
      "inputs": [
        {
          "internalType": "address",
          "name": "from",
          "type": "address"
        },
        {
          "internalType": "address",
          "name": "to",
          "type": "address"
        },
        {
          "internalType": "uint256",
          "name": "tokenId",
          "type": "uint256"
        }
      ],
      "name": "transferFrom",
      "outputs": [],
      "stateMutability": "nonpayable",
      "type": "function"
    }
  ],
  "bytecode": "0x60806040523480156200001157600080fd5b506040518060400160405280600f81526020017f56657269666961626c6550726f6f6600000000000000000000000000000000008152506040518060400160405280600281526020017f565000000000000000000000000000000000000000000000000000000000000081525081600090816200008f919062000351565b508060019081620000a1919062000351565b505050620000bb6007620000c160201b62000da51760201c565b62000438565b6001816000016000828254019250508190555050565b600081519050919050565b7f4e487b7100000000000000000000000000000000000000000000000000000000600052604160045260246000fd5b7f4e487b7100000000000000000000000000000000000000000000000000000000600052602260045260246000fd5b600060028204905060018216806200015957607f821691505b6020821081036200016f576200016e62000111565b5b50919050565b60008190508160005260206000209050919050565b60006020601f8301049050919050565b600082821b905092915050565b600060088302620001d97fffffffffffffffffffffffffffffffffffffffffffffffffffffffffffffffff826200019a565b620001e586836200019a565b95508019841693508086168417925050509392505050565b6000819050919050565b6000819050919050565b6000620002326200022c6200022684620001fd565b62000207565b620001fd565b9050919050565b6000819050919050565b6200024e8362000211565b620002666200025d8262000239565b848454620001a7565b825550505050565b600090565b6200027d6200026e565b6200028a81848462000243565b505050565b5b81811015620002b257620002a660008262000273565b60018101905062000290565b5050565b601f8211156200030157620002cb8162000175565b620002d6846200018a565b81016020851015620002e6578190505b620002fe620002f5856200018a565b8301826200028f565b50505b505050565b600082821c905092915050565b6000620003266000198460080262000306565b1980831691505092915050565b600062000341838362000313565b9150826002028217905092915050565b6200035c82620000d7565b67ffffffffffffffff811115620003785762000377620000e2565b5b62000384825462000140565b62000391828285620002b6565b600060209050601f831160018114620003c95760008415620003b4578287015190505b620003c0858262000333565b86555062000430565b601f198416620003d98662000175565b60005b828110156200040357848901518255600182019150602085019450602081019050620003dc565b868310156200042357848901516200041f601f89168262000313565b8355505b6001600288020188555050505b505050505050565b61379c80620004486000396000f3fe608060405234801561001057600080fd5b506004361061010b5760003560e01c806370a08231116100a2578063b88d4fde11610071578063b88d4fde146102b6578063c87b56dd146102d2578063d082e38114610302578063e985e9c514610320578063ff987269146103505761010b565b806370a082311461022e57806395d89b411461025e578063a16002401461027c578063a22cb4651461029a5761010b565b806323b872dd116100de57806323b872dd146101aa5780632f4d08b5146101c657806342842e0e146101e25780636352211e146101fe5761010b565b806301ffc9a71461011057806306fdde0314610140578063081812fc1461015e578063095ea7b31461018e575b600080fd5b61012a60048036038101906101259190612330565b61036c565b6040516101379190612378565b60405180910390f35b61014861037e565b6040516101559190612423565b60405180910390f35b6101786004803603810190610173919061247b565b610410565b60405161018591906124e9565b60405180910390f35b6101a860048036038101906101a39190612530565b610456565b005b6101c460048036038101906101bf9190612570565b61056d565b005b6101e060048036038101906101db91906126f8565b6105cd565b005b6101fc60048036038101906101f79190612570565b61068c565b005b6102186004803603810190610213919061247b565b6106ac565b60405161022591906124e9565b60405180910390f35b61024860048036038101906102439190612767565b6107a2565b60405161025591906127a3565b60405180910390f35b610266610859565b6040516102739190612423565b60405180910390f35b6102846108eb565b6040516102919190612938565b60405180910390f35b6102b460048036038101906102af9190612986565b610b3b565b005b6102d060048036038101906102cb9190612a67565b610b51565b005b6102ec60048036038101906102e7919061247b565b610bb3565b6040516102f99190612423565b60405180910390f35b61030a610cf4565b60405161031791906127a3565b60405180910390f35b61033a60048036038101906103359190612aea565b610d05565b6040516103479190612378565b60405180910390f35b61036a6004803603810190610365919061247b565b610d99565b005b600061037782610dbb565b9050919050565b60606000805461038d90612b59565b80601f01602080910402602001604051908101604052809291908181526020018280546103b990612b59565b80156104065780601f106103db57610100808354040283529160200191610406565b820191906000526020600020905b8154815290600101906020018083116103e957829003601f168201915b5050505050905090565b600061041b82610e1c565b6004600083815260200190815260200160002060009054906101000a900473ffffffffffffffffffffffffffffffffffffffff169050919050565b600061046182610e67565b90508073ffffffffffffffffffffffffffffffffffffffff168373ffffffffffffffffffffffffffffffffffffffff16036104d1576040517f08c379a00000000000000000000000000000000000000000000000000000000081526004016104c890612bfc565b60405180910390fd5b8073ffffffffffffffffffffffffffffffffffffffff166104f0610eed565b73ffffffffffffffffffffffffffffffffffffffff16148061051f575061051e81610519610eed565b610d05565b5b61055e576040517f08c379a000000000000000000000000000000000000000000000000000000000815260040161055590612c8e565b60405180910390fd5b6105688383610ef5565b505050565b61057e610578610eed565b82610fae565b6105bd576040517f08c379a00000000000000000000000000000000000000000000000000000000081526004016105b490612d20565b60405180910390fd5b6105c8838383611043565b505050565b60006105d9600761133c565b90506105e5848261134a565b6105ef8184611368565b816008600083815260200190815260200160002060006101000a81548173ffffffffffffffffffffffffffffffffffffffff021916908373ffffffffffffffffffffffffffffffffffffffff1602179055507f7700e3115e732bc6ed3b042295d7ed238d0c4a9ff7f1c65932ec627f628160ec33838360405161067493929190612d40565b60405180910390a16106866007610da5565b50505050565b6106a783838360405180602001604052806000815250610b51565b505050565b6000600115156009600084815260200190815260200160002060009054906101000a900460ff161515036106e3576000905061079d565b3373ffffffffffffffffffffffffffffffffffffffff1661070383610e67565b73ffffffffffffffffffffffffffffffffffffffff16148061078357503373ffffffffffffffffffffffffffffffffffffffff166008600084815260200190815260200160002060009054906101000a900473ffffffffffffffffffffffffffffffffffffffff1673ffffffffffffffffffffffffffffffffffffffff16145b156107985761079182610e67565b905061079d565b600090505b919050565b60008073ffffffffffffffffffffffffffffffffffffffff168273ffffffffffffffffffffffffffffffffffffffff1603610812576040517f08c379a000000000000000000000000000000000000000000000000000000000815260040161080990612de9565b60405180910390fd5b600360008373ffffffffffffffffffffffffffffffffffffffff1673ffffffffffffffffffffffffffffffffffffffff168152602001908152602001600020549050919050565b60606001805461086890612b59565b80601f016020809104026020016040519081016040528092919081815260200182805461089490612b59565b80156108e15780601f106108b6576101008083540402835291602001916108e1565b820191906000526020600020905b8154815290600101906020018083116108c457829003601f168201915b5050505050905090565b606060006108f7610cf4565b905060008167ffffffffffffffff811115610915576109146125cd565b5b60405190808252806020026020018201604052801561094e57816020015b61093b612230565b8152602001906001900390816109335790505b509050600080600190505b83811015610a80576009600082815260200190815260200160002060009054906101000a900460ff16610a6d573373ffffffffffffffffffffffffffffffffffffffff166109a682610e67565b73ffffffffffffffffffffffffffffffffffffffff1603610a6c5760006109cc82610bb3565b905060006008600084815260200190815260200160002060009054906101000a900473ffffffffffffffffffffffffffffffffffffffff169050600060405180606001604052808581526020018373ffffffffffffffffffffffffffffffffffffffff16815260200184815250905080868681518110610a4f57610a4e612e09565b5b60200260200101819052508480610a6590612e67565b9550505050505b5b8080610a7890612e67565b915050610959565b5060008167ffffffffffffffff811115610a9d57610a9c6125cd565b5b604051908082528060200260200182016040528015610ad657816020015b610ac3612230565b815260200190600190039081610abb5790505b50905060005b82811015610b3057838181518110610af757610af6612e09565b5b6020026020010151828281518110610b1257610b11612e09565b5b60200260200101819052508080610b2890612e67565b915050610adc565b508094505050505090565b610b4d610b46610eed565b838361140c565b5050565b610b62610b5c610eed565b83610fae565b610ba1576040517f08c379a0000000000000000000000000000000000000000000000000000000008152600401610b9890612d20565b60405180910390fd5b610bad84848484611578565b50505050565b6060600115156009600084815260200190815260200160002060009054906101000a900460ff16151503610c1e576040518060400160405280600e81526020017f50726f6f662064656c657465642e0000000000000000000000000000000000008152509050610cef565b3373ffffffffffffffffffffffffffffffffffffffff16610c3e83610e67565b73ffffffffffffffffffffffffffffffffffffffff161480610cbe57503373ffffffffffffffffffffffffffffffffffffffff166008600084815260200190815260200160002060009054906101000a900473ffffffffffffffffffffffffffffffffffffffff1673ffffffffffffffffffffffffffffffffffffffff16145b15610cd357610ccc826115d4565b9050610cef565b6040518060600160405280603d815260200161372a603d913990505b919050565b6000610d00600761133c565b905090565b6000600560008473ffffffffffffffffffffffffffffffffffffffff1673ffffffffffffffffffffffffffffffffffffffff16815260200190815260200160002060008373ffffffffffffffffffffffffffffffffffffffff1673ffffffffffffffffffffffffffffffffffffffff16815260200190815260200160002060009054906101000a900460ff16905092915050565b610da2816116e6565b50565b6001816000016000828254019250508190555050565b6000634906490660e01b7bffffffffffffffffffffffffffffffffffffffffffffffffffffffff1916827bffffffffffffffffffffffffffffffffffffffffffffffffffffffff19161480610e155750610e14826117f7565b5b9050919050565b610e25816118d9565b610e64576040517f08c379a0000000000000000000000000000000000000000000000000000000008152600401610e5b90612efb565b60405180910390fd5b50565b600080610e738361191a565b9050600073ffffffffffffffffffffffffffffffffffffffff168173ffffffffffffffffffffffffffffffffffffffff1603610ee4576040517f08c379a0000000000000000000000000000000000000000000000000000000008152600401610edb90612efb565b60405180910390fd5b80915050919050565b600033905090565b816004600083815260200190815260200160002060006101000a81548173ffffffffffffffffffffffffffffffffffffffff021916908373ffffffffffffffffffffffffffffffffffffffff160217905550808273ffffffffffffffffffffffffffffffffffffffff16610f6883610e67565b73ffffffffffffffffffffffffffffffffffffffff167f8c5be1e5ebec7d5bd14f71427d1e84f3dd0314c0f7b2291e5b200ac8c7c3b92560405160405180910390a45050565b600080610fba83610e67565b90508073ffffffffffffffffffffffffffffffffffffffff168473ffffffffffffffffffffffffffffffffffffffff161480610ffc5750610ffb8185610d05565b5b8061103a57508373ffffffffffffffffffffffffffffffffffffffff1661102284610410565b73ffffffffffffffffffffffffffffffffffffffff16145b91505092915050565b8273ffffffffffffffffffffffffffffffffffffffff1661106382610e67565b73ffffffffffffffffffffffffffffffffffffffff16146110b9576040517f08c379a00000000000000000000000000000000000000000000000000000000081526004016110b090612f8d565b60405180910390fd5b600073ffffffffffffffffffffffffffffffffffffffff168273ffffffffffffffffffffffffffffffffffffffff1603611128576040517f08c379a000000000000000000000000000000000000000000000000000000000815260040161111f9061301f565b60405180910390fd5b6111358383836001611957565b8273ffffffffffffffffffffffffffffffffffffffff1661115582610e67565b73ffffffffffffffffffffffffffffffffffffffff16146111ab576040517f08c379a00000000000000000000000000000000000000000000000000000000081526004016111a290612f8d565b60405180910390fd5b6004600082815260200190815260200160002060006101000a81549073ffffffffffffffffffffffffffffffffffffffff02191690556001600360008573ffffffffffffffffffffffffffffffffffffffff1673ffffffffffffffffffffffffffffffffffffffff168152602001908152602001600020600082825403925050819055506001600360008473ffffffffffffffffffffffffffffffffffffffff1673ffffffffffffffffffffffffffffffffffffffff16815260200190815260200160002060008282540192505081905550816002600083815260200190815260200160002060006101000a81548173ffffffffffffffffffffffffffffffffffffffff021916908373ffffffffffffffffffffffffffffffffffffffff160217905550808273ffffffffffffffffffffffffffffffffffffffff168473ffffffffffffffffffffffffffffffffffffffff167fddf252ad1be2c89b69c2b068fc378daa952ba7f163c4a11628f55a4df523b3ef60405160405180910390a4611337838383600161195d565b505050565b600081600001549050919050565b611364828260405180602001604052806000815250611963565b5050565b611371826118d9565b6113b0576040517f08c379a00000000000000000000000000000000000000000000000000000000081526004016113a7906130b1565b60405180910390fd5b806006600084815260200190815260200160002090816113d0919061327d565b507ff8e1a15aba9398e019f0b49df1a4fde98ee17ae345cb5f6b5e2c27f5033e8ce78260405161140091906127a3565b60405180910390a15050565b8173ffffffffffffffffffffffffffffffffffffffff168373ffffffffffffffffffffffffffffffffffffffff160361147a576040517f08c379a00000000000000000000000000000000000000000000000000000000081526004016114719061339b565b60405180910390fd5b80600560008573ffffffffffffffffffffffffffffffffffffffff1673ffffffffffffffffffffffffffffffffffffffff16815260200190815260200160002060008473ffffffffffffffffffffffffffffffffffffffff1673ffffffffffffffffffffffffffffffffffffffff16815260200190815260200160002060006101000a81548160ff0219169083151502179055508173ffffffffffffffffffffffffffffffffffffffff168373ffffffffffffffffffffffffffffffffffffffff167f17307eab39ab6107e8899845ad3d59bd9653f200f220920489ca2b5937696c318360405161156b9190612378565b60405180910390a3505050565b611583848484611043565b61158f848484846119be565b6115ce576040517f08c379a00000000000000000000000000000000000000000000000000000000081526004016115c59061342d565b60405180910390fd5b50505050565b60606115df82610e1c565b60006006600084815260200190815260200160002080546115ff90612b59565b80601f016020809104026020016040519081016040528092919081815260200182805461162b90612b59565b80156116785780601f1061164d57610100808354040283529160200191611678565b820191906000526020600020905b81548152906001019060200180831161165b57829003601f168201915b505050505090506000611689611b45565b9050600081510361169e5781925050506116e1565b6000825111156116d35780826040516020016116bb929190613489565b604051602081830303815290604052925050506116e1565b6116dc84611b5c565b925050505b919050565b3373ffffffffffffffffffffffffffffffffffffffff16611706826106ac565b73ffffffffffffffffffffffffffffffffffffffff161461175c576040517f08c379a00000000000000000000000000000000000000000000000000000000081526004016117539061351f565b60405180910390fd5b61176581611bc4565b60016009600083815260200190815260200160002060006101000a81548160ff0219169083151502179055506008600082815260200190815260200160002060006101000a81549073ffffffffffffffffffffffffffffffffffffffff0219169055807f9aa57374d08dca9256af3fad2754df3c122bf1f58995fb479e21a1764c81dd7a60405160405180910390a250565b60007f80ac58cd000000000000000000000000000000000000000000000000000000007bffffffffffffffffffffffffffffffffffffffffffffffffffffffff1916827bffffffffffffffffffffffffffffffffffffffffffffffffffffffff191614806118c257507f5b5e139f000000000000000000000000000000000000000000000000000000007bffffffffffffffffffffffffffffffffffffffffffffffffffffffff1916827bffffffffffffffffffffffffffffffffffffffffffffffffffffffff1916145b806118d257506118d182611c17565b5b9050919050565b60008073ffffffffffffffffffffffffffffffffffffffff166118fb8361191a565b73ffffffffffffffffffffffffffffffffffffffff1614159050919050565b60006002600083815260200190815260200160002060009054906101000a900473ffffffffffffffffffffffffffffffffffffffff169050919050565b50505050565b50505050565b61196d8383611c81565b61197a60008484846119be565b6119b9576040517f08c379a00000000000000000000000000000000000000000000000000000000081526004016119b09061342d565b60405180910390fd5b505050565b60006119df8473ffffffffffffffffffffffffffffffffffffffff16611e9e565b15611b38578373ffffffffffffffffffffffffffffffffffffffff1663150b7a02611a08610eed565b8786866040518563ffffffff1660e01b8152600401611a2a9493929190613594565b6020604051808303816000875af1925050508015611a6657506040513d601f19601f82011682018060405250810190611a6391906135f5565b60015b611ae8573d8060008114611a96576040519150601f19603f3d011682016040523d82523d6000602084013e611a9b565b606091505b506000815103611ae0576040517f08c379a0000000000000000000000000000000000000000000000000000000008152600401611ad79061342d565b60405180910390fd5b805181602001fd5b63150b7a0260e01b7bffffffffffffffffffffffffffffffffffffffffffffffffffffffff1916817bffffffffffffffffffffffffffffffffffffffffffffffffffffffff191614915050611b3d565b600190505b949350505050565b606060405180602001604052806000815250905090565b6060611b6782610e1c565b6000611b71611b45565b90506000815111611b915760405180602001604052806000815250611bbc565b80611b9b84611ec1565b604051602001611bac929190613489565b6040516020818303038152906040525b915050919050565b611bcd81611f8f565b6000600660008381526020019081526020016000208054611bed90612b59565b905014611c1457600660008281526020019081526020016000206000611c139190612267565b5b50565b60007f01ffc9a7000000000000000000000000000000000000000000000000000000007bffffffffffffffffffffffffffffffffffffffffffffffffffffffff1916827bffffffffffffffffffffffffffffffffffffffffffffffffffffffff1916149050919050565b600073ffffffffffffffffffffffffffffffffffffffff168273ffffffffffffffffffffffffffffffffffffffff1603611cf0576040517f08c379a0000000000000000000000000000000000000000000000000000000008152600401611ce79061366e565b60405180910390fd5b611cf9816118d9565b15611d39576040517f08c379a0000000000000000000000000000000000000000000000000000000008152600401611d30906136da565b60405180910390fd5b611d47600083836001611957565b611d50816118d9565b15611d90576040517f08c379a0000000000000000000000000000000000000000000000000000000008152600401611d87906136da565b60405180910390fd5b6001600360008473ffffffffffffffffffffffffffffffffffffffff1673ffffffffffffffffffffffffffffffffffffffff16815260200190815260200160002060008282540192505081905550816002600083815260200190815260200160002060006101000a81548173ffffffffffffffffffffffffffffffffffffffff021916908373ffffffffffffffffffffffffffffffffffffffff160217905550808273ffffffffffffffffffffffffffffffffffffffff16600073ffffffffffffffffffffffffffffffffffffffff167fddf252ad1be2c89b69c2b068fc378daa952ba7f163c4a11628f55a4df523b3ef60405160405180910390a4611e9a60008383600161195d565b5050565b6000808273ffffffffffffffffffffffffffffffffffffffff163b119050919050565b606060006001611ed0846120dd565b01905060008167ffffffffffffffff811115611eef57611eee6125cd565b5b6040519080825280601f01601f191660200182016040528015611f215781602001600182028036833780820191505090505b509050600082602001820190505b600115611f84578080600190039150507f3031323334353637383961626364656600000000000000000000000000000000600a86061a8153600a8581611f7857611f776136fa565b5b04945060008503611f2f575b819350505050919050565b6000611f9a82610e67565b9050611faa816000846001611957565b611fb382610e67565b90506004600083815260200190815260200160002060006101000a81549073ffffffffffffffffffffffffffffffffffffffff02191690556001600360008373ffffffffffffffffffffffffffffffffffffffff1673ffffffffffffffffffffffffffffffffffffffff168152602001908152602001600020600082825403925050819055506002600083815260200190815260200160002060006101000a81549073ffffffffffffffffffffffffffffffffffffffff021916905581600073ffffffffffffffffffffffffffffffffffffffff168273ffffffffffffffffffffffffffffffffffffffff167fddf252ad1be2c89b69c2b068fc378daa952ba7f163c4a11628f55a4df523b3ef60405160405180910390a46120d981600084600161195d565b5050565b600080600090507a184f03e93ff9f4daa797ed6e38ed64bf6a1f010000000000000000831061213b577a184f03e93ff9f4daa797ed6e38ed64bf6a1f0100000000000000008381612131576121306136fa565b5b0492506040810190505b6d04ee2d6d415b85acef81000000008310612178576d04ee2d6d415b85acef8100000000838161216e5761216d6136fa565b5b0492506020810190505b662386f26fc1000083106121a757662386f26fc10000838161219d5761219c6136fa565b5b0492506010810190505b6305f5e10083106121d0576305f5e10083816121c6576121c56136fa565b5b0492506008810190505b61271083106121f55761271083816121eb576121ea6136fa565b5b0492506004810190505b60648310612218576064838161220e5761220d6136fa565b5b0492506002810190505b600a8310612227576001810190505b80915050919050565b604051806060016040528060008152602001600073ffffffffffffffffffffffffffffffffffffffff168152602001606081525090565b50805461227390612b59565b6000825580601f1061228557506122a4565b601f0160209004906000526020600020908101906122a391906122a7565b5b50565b5b808211156122c05760008160009055506001016122a8565b5090565b6000604051905090565b600080fd5b600080fd5b60007fffffffff0000000000000000000000000000000000000000000000000000000082169050919050565b61230d816122d8565b811461231857600080fd5b50565b60008135905061232a81612304565b92915050565b600060208284031215612346576123456122ce565b5b60006123548482850161231b565b91505092915050565b60008115159050919050565b6123728161235d565b82525050565b600060208201905061238d6000830184612369565b92915050565b600081519050919050565b600082825260208201905092915050565b60005b838110156123cd5780820151818401526020810190506123b2565b60008484015250505050565b6000601f19601f8301169050919050565b60006123f582612393565b6123ff818561239e565b935061240f8185602086016123af565b612418816123d9565b840191505092915050565b6000602082019050818103600083015261243d81846123ea565b905092915050565b6000819050919050565b61245881612445565b811461246357600080fd5b50565b6000813590506124758161244f565b92915050565b600060208284031215612491576124906122ce565b5b600061249f84828501612466565b91505092915050565b600073ffffffffffffffffffffffffffffffffffffffff82169050919050565b60006124d3826124a8565b9050919050565b6124e3816124c8565b82525050565b60006020820190506124fe60008301846124da565b92915050565b61250d816124c8565b811461251857600080fd5b50565b60008135905061252a81612504565b92915050565b60008060408385031215612547576125466122ce565b5b60006125558582860161251b565b925050602061256685828601612466565b9150509250929050565b600080600060608486031215612589576125886122ce565b5b60006125978682870161251b565b93505060206125a88682870161251b565b92505060406125b986828701612466565b9150509250925092565b600080fd5b600080fd5b7f4e487b7100000000000000000000000000000000000000000000000000000000600052604160045260246000fd5b612605826123d9565b810181811067ffffffffffffffff82111715612624576126236125cd565b5b80604052505050565b60006126376122c4565b905061264382826125fc565b919050565b600067ffffffffffffffff821115612663576126626125cd565b5b61266c826123d9565b9050602081019050919050565b82818337600083830152505050565b600061269b61269684612648565b61262d565b9050828152602081018484840111156126b7576126b66125c8565b5b6126c2848285612679565b509392505050565b600082601f8301126126df576126de6125c3565b5b81356126ef848260208601612688565b91505092915050565b600080600060608486031215612711576127106122ce565b5b600061271f8682870161251b565b935050602084013567ffffffffffffffff8111156127405761273f6122d3565b5b61274c868287016126ca565b925050604061275d8682870161251b565b9150509250925092565b60006020828403121561277d5761277c6122ce565b5b600061278b8482850161251b565b91505092915050565b61279d81612445565b82525050565b60006020820190506127b86000830184612794565b92915050565b600081519050919050565b600082825260208201905092915050565b6000819050602082019050919050565b6127f381612445565b82525050565b612802816124c8565b82525050565b600082825260208201905092915050565b600061282482612393565b61282e8185612808565b935061283e8185602086016123af565b612847816123d9565b840191505092915050565b600060608301600083015161286a60008601826127ea565b50602083015161287d60208601826127f9565b50604083015184820360408601526128958282612819565b9150508091505092915050565b60006128ae8383612852565b905092915050565b6000602082019050919050565b60006128ce826127be565b6128d881856127c9565b9350836020820285016128ea856127da565b8060005b85811015612926578484038952815161290785826128a2565b9450612912836128b6565b925060208a019950506001810190506128ee565b50829750879550505050505092915050565b6000602082019050818103600083015261295281846128c3565b905092915050565b6129638161235d565b811461296e57600080fd5b50565b6000813590506129808161295a565b92915050565b6000806040838503121561299d5761299c6122ce565b5b60006129ab8582860161251b565b92505060206129bc85828601612971565b9150509250929050565b600067ffffffffffffffff8211156129e1576129e06125cd565b5b6129ea826123d9565b9050602081019050919050565b6000612a0a612a05846129c6565b61262d565b905082815260208101848484011115612a2657612a256125c8565b5b612a31848285612679565b509392505050565b600082601f830112612a4e57612a4d6125c3565b5b8135612a5e8482602086016129f7565b91505092915050565b60008060008060808587031215612a8157612a806122ce565b5b6000612a8f8782880161251b565b9450506020612aa08782880161251b565b9350506040612ab187828801612466565b925050606085013567ffffffffffffffff811115612ad257612ad16122d3565b5b612ade87828801612a39565b91505092959194509250565b60008060408385031215612b0157612b006122ce565b5b6000612b0f8582860161251b565b9250506020612b208582860161251b565b9150509250929050565b7f4e487b7100000000000000000000000000000000000000000000000000000000600052602260045260246000fd5b60006002820490506001821680612b7157607f821691505b602082108103612b8457612b83612b2a565b5b50919050565b7f4552433732313a20617070726f76616c20746f2063757272656e74206f776e6560008201527f7200000000000000000000000000000000000000000000000000000000000000602082015250565b6000612be660218361239e565b9150612bf182612b8a565b604082019050919050565b60006020820190508181036000830152612c1581612bd9565b9050919050565b7f4552433732313a20617070726f76652063616c6c6572206973206e6f7420746f60008201527f6b656e206f776e6572206f7220617070726f76656420666f7220616c6c000000602082015250565b6000612c78603d8361239e565b9150612c8382612c1c565b604082019050919050565b60006020820190508181036000830152612ca781612c6b565b9050919050565b7f4552433732313a2063616c6c6572206973206e6f7420746f6b656e206f776e6560008201527f72206f7220617070726f76656400000000000000000000000000000000000000602082015250565b6000612d0a602d8361239e565b9150612d1582612cae565b604082019050919050565b60006020820190508181036000830152612d3981612cfd565b9050919050565b6000606082019050612d5560008301866124da565b612d6260208301856124da565b612d6f6040830184612794565b949350505050565b7f4552433732313a2061646472657373207a65726f206973206e6f74206120766160008201527f6c6964206f776e65720000000000000000000000000000000000000000000000602082015250565b6000612dd360298361239e565b9150612dde82612d77565b604082019050919050565b60006020820190508181036000830152612e0281612dc6565b9050919050565b7f4e487b7100000000000000000000000000000000000000000000000000000000600052603260045260246000fd5b7f4e487b7100000000000000000000000000000000000000000000000000000000600052601160045260246000fd5b6000612e7282612445565b91507fffffffffffffffffffffffffffffffffffffffffffffffffffffffffffffffff8203612ea457612ea3612e38565b5b600182019050919050565b7f4552433732313a20696e76616c696420746f6b656e2049440000000000000000600082015250565b6000612ee560188361239e565b9150612ef082612eaf565b602082019050919050565b60006020820190508181036000830152612f1481612ed8565b9050919050565b7f4552433732313a207472616e736665722066726f6d20696e636f72726563742060008201527f6f776e6572000000000000000000000000000000000000000000000000000000602082015250565b6000612f7760258361239e565b9150612f8282612f1b565b604082019050919050565b60006020820190508181036000830152612fa681612f6a565b9050919050565b7f4552433732313a207472616e7366657220746f20746865207a65726f2061646460008201527f7265737300000000000000000000000000000000000000000000000000000000602082015250565b600061300960248361239e565b915061301482612fad565b604082019050919050565b6000602082019050818103600083015261303881612ffc565b9050919050565b7f45524337323155524953746f726167653a2055524920736574206f66206e6f6e60008201527f6578697374656e7420746f6b656e000000000000000000000000000000000000602082015250565b600061309b602e8361239e565b91506130a68261303f565b604082019050919050565b600060208201905081810360008301526130ca8161308e565b9050919050565b60008190508160005260206000209050919050565b60006020601f8301049050919050565b600082821b905092915050565b6000600883026131337fffffffffffffffffffffffffffffffffffffffffffffffffffffffffffffffff826130f6565b61313d86836130f6565b95508019841693508086168417925050509392505050565b6000819050919050565b600061317a61317561317084612445565b613155565b612445565b9050919050565b6000819050919050565b6131948361315f565b6131a86131a082613181565b848454613103565b825550505050565b600090565b6131bd6131b0565b6131c881848461318b565b505050565b5b818110156131ec576131e16000826131b5565b6001810190506131ce565b5050565b601f82111561323157613202816130d1565b61320b846130e6565b8101602085101561321a578190505b61322e613226856130e6565b8301826131cd565b50505b505050565b600082821c905092915050565b600061325460001984600802613236565b1980831691505092915050565b600061326d8383613243565b9150826002028217905092915050565b61328682612393565b67ffffffffffffffff81111561329f5761329e6125cd565b5b6132a98254612b59565b6132b48282856131f0565b600060209050601f8311600181146132e757600084156132d5578287015190505b6132df8582613261565b865550613347565b601f1984166132f5866130d1565b60005b8281101561331d578489015182556001820191506020850194506020810190506132f8565b8683101561333a5784890151613336601f891682613243565b8355505b6001600288020188555050505b505050505050565b7f4552433732313a20617070726f766520746f2063616c6c657200000000000000600082015250565b600061338560198361239e565b91506133908261334f565b602082019050919050565b600060208201905081810360008301526133b481613378565b9050919050565b7f4552433732313a207472616e7366657220746f206e6f6e20455243373231526560008201527f63656976657220696d706c656d656e7465720000000000000000000000000000602082015250565b600061341760328361239e565b9150613422826133bb565b604082019050919050565b600060208201905081810360008301526134468161340a565b9050919050565b600081905092915050565b600061346382612393565b61346d818561344d565b935061347d8185602086016123af565b80840191505092915050565b60006134958285613458565b91506134a18284613458565b91508190509392505050565b7f4f6e6c79206f776e657220636f756c64206275726e207468697320746f6b656e60008201527f2e00000000000000000000000000000000000000000000000000000000000000602082015250565b600061350960218361239e565b9150613514826134ad565b604082019050919050565b60006020820190508181036000830152613538816134fc565b9050919050565b600081519050919050565b600082825260208201905092915050565b60006135668261353f565b613570818561354a565b93506135808185602086016123af565b613589816123d9565b840191505092915050565b60006080820190506135a960008301876124da565b6135b660208301866124da565b6135c36040830185612794565b81810360608301526135d5818461355b565b905095945050505050565b6000815190506135ef81612304565b92915050565b60006020828403121561360b5761360a6122ce565b5b6000613619848285016135e0565b91505092915050565b7f4552433732313a206d696e7420746f20746865207a65726f2061646472657373600082015250565b600061365860208361239e565b915061366382613622565b602082019050919050565b600060208201905081810360008301526136878161364b565b9050919050565b7f4552433732313a20746f6b656e20616c7265616479206d696e74656400000000600082015250565b60006136c4601c8361239e565b91506136cf8261368e565b602082019050919050565b600060208201905081810360008301526136f3816136b7565b9050919050565b7f4e487b7100000000000000000000000000000000000000000000000000000000600052601260045260246000fdfe4f6e6c792074686520636f72726573706f6e64696e67205665726966696572206f72204f776e657220636f756c6420676574207468697320646174612ea26469706673582212206fb3bc649b029154dd23e93c29fce40cf00ff3b088cd2a0e5a6e5b9e25bc46d264736f6c63430008110033",
  "linkReferences": {},
  "deployedLinkReferences": {}
}